:100000000C9462000C948A000C948A000C948A0070
:100010000C948A000C948A000C948A000C948A0038
:100020000C948A000C948A000C948A000C948A0028
:100030000C948A000C948A000C948A000C948A0018
:100040000C94AD010C948A000C94AE030C94F5034F
:100050000C948A000C948A000C948A000C948A00F8
:100060000C948A000C948A000000000024002700F1
:100070002A0000000000250028002B0000000000DE
:1000800023002600290004040404040404040202DA
:100090000202020203030303030301020408102007
:1000A0004080010204081020010204081020000012
:1000B0000007000201000003040600000000000029
:1000C0000000320511241FBECFEFD8E0DEBFCDBF48
:1000D00011E0A0E0B1E0ECEEFEE002C005900D9270
:1000E000A631B107D9F711E0A6E1B1E001C01D9238
:1000F000A13CB107E1F710E0C4ECD0E004C02297C6
:10010000FE010E943907C23CD107C9F70E94880549
:100110000C9474070C940000A0E0B0E0E2E9F0E079
:100120000C944507EC01A880B980CA80DB80A1143B
:10013000B104C104D10441F484E2A82E89EDB82EA3
:100140008BE5C82E87E0D82EC601B5012DE133EF2F
:1001500041E050E00E941C0727EA31E440E050E013
:100160000E94DB067B018C01C601B5012DE133EF56
:1001700041E050E00E941C07CA01B9012CEE34EFA7
:100180004FEF5FEF0E94DB066E0D7F1D801F911FFA
:1001900097FF04C061507040804090486883798325
:1001A0008A839B839B01AC015F77B901CA01CDB7FC
:1001B000DEB7EAE00C9461070E948C00089580E0AD
:1001C00091E00E948C0008956093000170930101FA
:1001D000809302019093030108958FE191E040E044
:1001E00052EC61E070E00E94250480E00E949802D9
:1001F0000E94C105089508950F931F93182F062F8D
:1002000061E00E941A03812F602F0E9459031F9101
:100210000F910895DF92EF92FF920F931F93D82EC4
:10022000142F052FF62EE72E642F752F8F2D9E2D60
:1002300020E030E040E050E00E94CA0588235CF4F2
:100240000F2EF0E0EF2EF0E0FF2EF0E00F2FF0E0A9
:100250001F2FF02D1DC0612F702F8F2D9E2D20E0A0
:1002600030E048EC52E40E94740618163CF0812FEE
:10027000902FAF2DBE2D7C018D010AC00F2EF0E016
:10028000EF2EF0E0FF2EF8EC0F2FF2E41F2FF02DF1
:100290008D2D61E00E941A03C801B70123E333E307
:1002A00043E250E40E9478060E94CE059B01AC0117
:1002B0008D2DB9010E94BA021F910F91FF90EF900E
:1002C000DF9008950E94ED0084E060E00E94FC0051
:1002D00082E061E00E94FC0085E060E00E94FC009A
:1002E00087E061E00E94FC0083E040E050E068E4C9
:1002F00072E40E940A0186E040E050E068E472E4A3
:100300000E940A0168EE73E080E090E00E943002F3
:1003100084E060E00E94FC0082E060E00E94FC005B
:1003200085E060E00E94FC0087E060E00E94FC0045
:1003300083E040E050E060E070E00E940A0186E067
:1003400040E050E060E070E00E940A0168EE73E077
:1003500080E090E00E943002B7CF1F920F920FB65C
:100360000F9211242F933F938F939F93AF93BF933B
:1003700080911A0190911B01A0911C01B0911D0167
:1003800030911E010196A11DB11D232F2D5F2D3728
:1003900020F02D570196A11DB11D20931E018093C1
:1003A0001A0190931B01A0931C01B0931D01809131
:1003B000160190911701A0911801B09119010196B1
:1003C000A11DB11D8093160190931701A0931801F0
:1003D000B0931901BF91AF919F918F913F912F9150
:1003E0000F900FBE0F901F901895789484B582607F
:1003F00084BD84B5816084BD85B5826085BD85B5C9
:10040000816085BDEEE6F0E0808181608083E1E877
:10041000F0E01082808182608083808181608083AF
:10042000E0E8F0E0808181608083E1EBF0E08081B2
:1004300084608083E0EBF0E0808181608083EAE784
:10044000F0E080818460808380818260808380810D
:10045000816080838081806880831092C1000895CC
:10046000EF92FF920F931F93CF93DF937B018C0149
:100470003FB7F8948091160190911701A09118014F
:10048000B091190126B5A89B05C02F3F19F0019620
:10049000A11DB11D3FBFBA2FA92F982F8827820F0A
:1004A000911DA11DB11D52E0880F991FAA1FBB1FEE
:1004B0005A95D1F7EC0130C00E94C9053FB7F894B6
:1004C0008091160190911701A0911801B091190126
:1004D00026B5A89B05C02F3F19F00196A11DB11D9F
:1004E0003FBFBA2FA92F982F8827820F911DA11DDA
:1004F000B11D32E0880F991FAA1FBB1F3A95D1F793
:100500008C1B9D0B885E9340B8F20894E108F108BB
:1005100001091109C851DC4FE114F104010511056D
:1005200059F6DF91CF911F910F91FF90EF900895B1
:10053000982F8E3008F09E5097708091040182951C
:10054000880F880F807C892B80937C0080917A00B3
:10055000806480937A0080917A0086FDFCCF2091A0
:10056000780040917900942F80E030E0282B392BDF
:10057000C90108951F93CF93DF93182FEB0161E01A
:100580000E941A03209709F44AC0CF3FD10509F40D
:1005900049C0E12FF0E0E255FF4F84918330C1F074
:1005A000843028F4813051F08230B1F50CC08630AF
:1005B00019F1873049F1843079F514C084B5806829
:1005C00084BDC7BD33C084B5806284BDC8BD2EC0A4
:1005D00080918000806880938000D0938900C093D0
:1005E000880024C080918000806280938000D09336
:1005F0008B00C0938A001AC08091B00080688093FD
:10060000B000C093B30012C08091B00080628093AC
:10061000B000C093B4000AC0C038D1051CF4812FCB
:1006200060E002C0812F61E00E945903DF91CF9109
:100630001F910895CF93DF93482F50E0CA0186564B
:100640009F4FFC0134914A575F4FFA0184918823F0
:1006500069F190E0880F991FFC01E859FF4FA591BF
:10066000B491FC01EE58FF4FC591D491662351F42B
:100670002FB7F8948C91932F909589238C93888130
:1006800089230BC0623061F42FB7F8948C91932FBB
:10069000909589238C938881832B88832FBF06C0F4
:1006A0009FB7F8948C91832B8C939FBFDF91CF9150
:1006B0000895482F50E0CA0182559F4FFC012491B4
:1006C000CA0186569F4FFC0194914A575F4FFA0129
:1006D0003491332309F440C0222351F1233071F0C7
:1006E000243028F42130A1F0223011F514C0263036
:1006F000B1F02730C1F02430D9F404C080918000DB
:100700008F7703C0809180008F7D8093800010C020
:1007100084B58F7702C084B58F7D84BD09C0809178
:10072000B0008F7703C08091B0008F7D8093B000C0
:10073000E32FF0E0EE0FFF1FEE58FF4FA591B491AD
:100740002FB7F894662321F48C919095892302C0E9
:100750008C91892B8C932FBF089508951F920F922F
:100760000FB60F9211242F933F934F938F939F9324
:10077000EF93FF938091C00082FD19C04091C600A5
:1007800080913D01282F30E02F5F3F4F2F73307055
:1007900080913E0190E02817390759F0E0913D0122
:1007A000F0E0E15EFE4F42A320933D0102C0809144
:1007B000C600FF91EF919F918F914F913F912F91A3
:1007C0000F900FBE0F901F90189580913D012091C2
:1007D0003E0190E0805C9F4F821B91098F73907067
:1007E000892B11F00E94AD0308951F920F920FB64E
:1007F0000F9211242F938F939F93EF93FF939091D8
:100800003F0180914001981731F48091C1008F7DA4
:100810008093C10010C0E0914001F0E0EF57FE4F1F
:1008200020818091400190E001968F7390708093B9
:1008300040012093C600FF91EF919F918F912F91DE
:100840000F900FBE0F901F901895AF92BF92DF923E
:10085000EF92FF920F931F93CF93DF93EC017A01F6
:100860008B01DD24403081EE580780E0680780E08E
:10087000780711F0DD24D39491E0A92EB12CE889FA
:10088000F989DD2069F0C5010C8C02C0880F991F21
:100890000A94E2F7808360E079E08DE390E005C0A0
:1008A000108260E874E88EE190E0A80197010E9450
:1008B000FA062150304040405040569547953795B4
:1008C000279580E12030380720F0DD2011F0DD246D
:1008D000D6CFEC85FD853083EE85FF8520831D8E88
:1008E000EA89FB89408121E030E0C901088C02C01F
:1008F000880F991F0A94E2F7482B4083EA89FB8905
:100900004081C901098C02C0880F991F0A94E2F73F
:10091000482B4083EA89FB894081C9010A8C02C0C7
:10092000880F991F0A94E2F7482B4083EA89FB89D4
:1009300080810B8C02C0220F331F0A94E2F72095AE
:1009400028232083DF91CF911F910F91FF90EF908B
:10095000DF90BF90AF900895FC01268D878D30E029
:10096000205C3F4F281B31092F733070C901089557
:10097000FC01968D878D981719F42FEF3FEF06C075
:10098000878DE80FF11D82A1282F30E0C90108955D
:10099000DC015E969C915E975F968C915F979817AD
:1009A00019F42FEF3FEF10C05F968C915F97FD0118
:1009B000E80FF11D92A15F968C915F978F5F8F7307
:1009C0005F968C93292F30E0C9010895DC015D9674
:1009D0008C915D97882339F05096ED91FC91519759
:1009E000808186FFF9CF5D961C920895DC01909678
:1009F0008C919097282F30E02F5F3F4F2F733070EE
:100A000091968C91919790E028173907C9F39096A9
:100A10008C919097FD01E80FF11DEE59FF4F608317
:100A200090962C9390975296ED91FC91539720813C
:100A300081E090E05B960C905B9702C0880F991F55
:100A40000A94E2F7282B208381E05D968C935D97D2
:100A50005096ED91FC91519780818064808381E074
:100A600090E00895109222011092210188EE93E007
:100A7000A0E0B0E08093230190932401A09325018E
:100A8000B093260189E091E09093200180931F01AB
:100A9000109240018091400180933F0110923E01ED
:100AA00080913E0180933D0185EC90E090932C0174
:100AB00080932B0184EC90E090932E0180932D0184
:100AC00080EC90E09093300180932F0181EC90E0D6
:100AD000909332018093310182EC90E09093340145
:100AE0008093330186EC90E090933601809335013A
:100AF00084E08093370183E08093380187E080931E
:100B0000390185E080933A0181E080933B010895AB
:100B1000CF93DF930E94F5010E946201C5EED3E0FE
:100B20000E94FB002097E1F30E94E503F9CFCF92EA
:100B3000DF92EF92FF920F931F93CF93DF937C018D
:100B40006B018A01C0E0D0E00FC0D6016D916D014C
:100B5000D701ED91FC910190F081E02DC70109953D
:100B6000C80FD91F015010400115110571F7CE01B2
:100B7000DF91CF911F910F91FF90EF90DF90CF9079
:100B80000895009729F0BC0180E090E00E94E40005
:100B90000895089534D008F481E0089504D068944D
:100BA000B1119CC008957FD088F09F5790F0B92F65
:100BB0009927B751A0F0D1F0660F771F881F991FB2
:100BC0001AF0BA95C9F712C0B13081F086D0B1E001
:100BD000089583C0672F782F8827B85F39F0B93F11
:100BE000CCF3869577956795B395D9F73EF49095B4
:100BF0008095709561957F4F8F4F9F4F0895990F06
:100C00000008550FAA0BE0E8FEEF16161706E807D6
:100C1000F907C0F012161306E407F50798F0621BF7
:100C2000730B840B950B39F40A2661F0232B242BCC
:100C3000252B21F408950A2609F4A140A6958FEFEB
:100C4000811D811D089597F99F6780E870E060E03D
:100C500008959FEF80EC089500240A941616170655
:100C600018060906089500240A941216130614069D
:100C700005060895092E0394000C11F4882352F000
:100C8000BB0F40F4BF2B11F460FF04C06F5F7F4FB8
:100C90008F4F9F4F089557FD9058440F551F59F09F
:100CA0005F3F71F04795880F97FB991F61F09F3F59
:100CB00079F087950895121613061406551FF2CF82
:100CC0004695F1DF08C0161617061806991FF1CFD2
:100CD00086957105610508940895E894BB276627F9
:100CE0007727CB0197F908958ADF08F48FEF0895ED
:100CF0000BD0C0CFB1DF28F0B6DF18F0952309F094
:100D0000A2CFA7CF1124EACFC6DFA0F3959FD1F3DE
:100D1000950F50E0551F629FF001729FBB27F00DA9
:100D2000B11D639FAA27F00DB11DAA1F649F6627FE
:100D3000B00DA11D661F829F2227B00DA11D621F4D
:100D4000739FB00DA11D621F839FA00D611D221F07
:100D5000749F3327A00D611D231F849F600D211DEB
:100D6000822F762F6A2F11249F5750408AF0E1F08E
:100D700088234AF0EE0FFF1FBB1F661F771F881FD7
:100D800091505040A9F79E3F510570F05CCFA6CF1F
:100D90005F3FECF3983EDCF3869577956795B795C2
:100DA000F795E7959F5FC1F7FE2B880F911D9695EC
:100DB000879597F90895629FD001739FF001829FF4
:100DC000E00DF11D649FE00DF11D929FF00D839FDA
:100DD000F00D749FF00D659FF00D9927729FB00D77
:100DE000E11DF91F639FB00DE11DF91FBD01CF018A
:100DF00011240895A1E21A2EAA1BBB1BFD010DC0F0
:100E0000AA1FBB1FEE1FFF1FA217B307E407F507BA
:100E100020F0A21BB30BE40BF50B661F771F881F96
:100E2000991F1A9469F760957095809590959B012C
:100E3000AC01BD01CF01089597FB092E05260ED008
:100E400057FD04D0D7DF0AD0001C38F450954095E8
:100E5000309521953F4F4F4F5F4F0895F6F790958E
:100E60008095709561957F4F8F4F9F4F0895EE0F3E
:100E7000FF1F0590F491E02D09942F923F924F921D
:100E80005F926F927F928F929F92AF92BF92CF921A
:100E9000DF92EF92FF920F931F93CF93DF93CDB723
:100EA000DEB7CA1BDB0B0FB6F894DEBF0FBECDBF9B
:100EB00009942A88398848885F846E847D848C846C
:100EC0009B84AA84B984C884DF80EE80FD800C8175
:100ED0001B81AA81B981CE0FD11D0FB6F894DEBF58
:0C0EE0000FBECDBFED010895F894FFCFC8
:100EEC00010000000100000000F6049705AC04C8E6
:060EFC0004B804E6040046
:00000001FF
