:100000000C9462000C948A000C948A000C948A0070
:100010000C948A000C948A000C948A000C948A0038
:100020000C948A000C948A000C948A000C948A0028
:100030000C948A000C948A000C948A000C948A0018
:100040000C9434020C948A000C943F040C948604A3
:100050000C948A000C948A000C948A000C948A00F8
:100060000C948A000C948A000000000024002700F1
:100070002A0000000000250028002B0000000000DE
:1000800023002600290004040404040404040202DA
:100090000202020203030303030301020408102007
:1000A0004080010204081020010204081020000012
:1000B0000007000201000003040600000000000029
:1000C0000000C30511241FBECFEFD8E0DEBFCDBFB7
:1000D00011E0A0E0B1E0EEE0F0E102C005900D9289
:1000E000AE32B107D9F711E0AEE2B1E001C01D9226
:1000F000A93DB107E1F710E0C4ECD0E004C02297BD
:10010000FE010E94CA07C23CD107C9F70E94190626
:100110000C9405080C940000A0E0B0E0E2E9F0E0E7
:100120000C94D607EC01A880B980CA80DB80A114AA
:10013000B104C104D10441F484E2A82E89EDB82EA3
:100140008BE5C82E87E0D82EC601B5012DE133EF2F
:1001500041E050E00E94AD0727EA31E440E050E082
:100160000E946C077B018C01C601B5012DE133EFC4
:1001700041E050E00E94AD07CA01B9012CEE34EF16
:100180004FEF5FEF0E946C076E0D7F1D801F911F68
:1001900097FF04C061507040804090486883798325
:1001A0008A839B839B01AC015F77B901CA01CDB7FC
:1001B000DEB7EAE00C94F2070E948C00089580E01C
:1001C00091E00E948C0008956093000170930101FA
:1001D0008093020190930301089587E391E040E04A
:1001E00052EC61E070E00E94B60480E00E942903B6
:1001F0000E945206089508950F931F93182F062FFB
:1002000061E00E94AB03812F602F0E94EA031F91DF
:100210000F910895DF92EF92FF920F931F93D82EC4
:10022000142F052FF62EE72E642F752F8F2D9E2D60
:1002300020E030E040E050E00E945B0688235CF460
:100240000F2EF0E0EF2EF0E0FF2EF0E00F2FF0E0A9
:100250001F2FF02D1DC0612F702F8F2D9E2D20E0A0
:1002600030E048EC52E40E94050718163CF0812F5C
:10027000902FAF2DBE2D7C018D010AC00F2EF0E016
:10028000EF2EF0E0FF2EF8EC0F2FF2E41F2FF02DF1
:100290008D2D61E00E94AB03C801B70123E333E376
:1002A00043E250E40E9409070E945F069B01AC01F3
:1002B0008D2DB9010E944B031F910F91FF90EF907C
:1002C000DF9008956F927F928F929F92AF92BF922C
:1002D000CF92DF92EF92FF920F931F93CF93DF9312
:1002E000EC01882777FD8095982F28EE33E040E0D9
:1002F00050E00E946C073B014C01CE01880F991F12
:100300005C01CC24B7FCC094DC2CEE24FF248701D4
:1003100012C088E061E00E94FC00CE010E947C02D5
:1003200088E060E00E94FC00CE010E947C02EA0CA2
:10033000FB1C0C1D1D1DE614F704080519054CF3E4
:10034000DF91CF911F910F91FF90EF90DF90CF90B1
:10035000BF90AF909F908F907F906F9008959F92E5
:10036000AF92BF92CF92DF92EF92FF920F931F93C3
:10037000DF93CF93CDB7DEB768970FB6F894DEBFA3
:100380000FBECDBF982E5B01DE011196E5E1F1E0D5
:1003900088E001900D928150E1F7DE011996E5E0C9
:1003A000F1E080E101900D928150E1F77E01089427
:1003B000E11CF11C8E01075F1F4F6801F70180816E
:1003C000891531F4F80180819181B5010E946201A3
:1003D0000894E11CF11C0E5F1F4FEC14FD0471F733
:1003E00068960FB6F894DEBF0FBECDBFCF91DF91F8
:1003F0001F910F91FF90EF90DF90CF90BF90AF9043
:100400009F9008950E94ED0084E060E00E94FC004F
:1004100082E061E00E94FC0085E060E00E94FC0058
:1004200087E061E00E94FC0083E040E050E068E487
:1004300072E40E940A0186E040E050E068E472E461
:100440000E940A0168EE73E080E090E00E94C10221
:1004500083E66CE271E00E94AF0166E970E080E043
:1004600090E00E94C102D0CF1F920F920FB60F9260
:1004700011242F933F938F939F93AF93BF938091BA
:10048000320190913301A0913401B0913501309146
:1004900036010196A11DB11D232F2D5F2D3720F0B0
:1004A0002D570196A11DB11D209336018093320175
:1004B00090933301A0933401B093350180912E01C4
:1004C00090912F01A0913001B09131010196A11DB1
:1004D000B11D80932E0190932F01A0933001B09312
:1004E0003101BF91AF919F918F913F912F910F90CB
:1004F0000FBE0F901F901895019739F0880F991F24
:10050000880F991F02970197F1F70895789484B5A1
:10051000826084BD84B5816084BD85B5826085BDFF
:1005200085B5816085BDEEE6F0E0808181608083E5
:10053000E1E8F0E0108280818260808380818160C8
:100540008083E0E8F0E0808181608083E1EBF0E08F
:10055000808184608083E0EBF0E080818160808333
:10056000EAE7F0E08081846080838081826080831C
:100570008081816080838081806880831092C10047
:100580000895EF92FF920F931F93CF93DF937B0118
:100590008C013FB7F89480912E0190912F01A0918A
:1005A0003001B091310126B5A89B05C02F3F19F04D
:1005B0000196A11DB11D3FBFBA2FA92F982F8827E3
:1005C000820F911DA11DB11D52E0880F991FAA1F16
:1005D000BB1F5A95D1F7EC0130C00E945A063FB7B5
:1005E000F89480912E0190912F01A0913001B0914B
:1005F000310126B5A89B05C02F3F19F00196A11D1A
:10060000B11D3FBFBA2FA92F982F8827820F911DA8
:10061000A11DB11D32E0880F991FAA1FBB1F3A957B
:10062000D1F78C1B9D0B885E9340B8F20894E108CB
:10063000F10801091109C851DC4FE114F104010569
:10064000110559F6DF91CF911F910F91FF90EF9017
:100650000895982F8E3008F09E5097708091040175
:100660008295880F880F807C892B80937C008091F5
:100670007A00806480937A0080917A0086FDFCCFB6
:100680002091780040917900942F80E030E0282B71
:10069000392BC90108951F93CF93DF93182FEB01D6
:1006A00061E00E94AB03209709F44AC0CF3FD10517
:1006B00009F449C0E12FF0E0E255FF4F8491833007
:1006C000C1F0843028F4813051F08230B1F50CC093
:1006D000863019F1873049F1843079F514C084B53A
:1006E000806884BDC7BD33C084B5806284BDC8BD89
:1006F0002EC080918000806880938000D093890014
:10070000C093880024C08091800080628093800024
:10071000D0938B00C0938A001AC08091B00080688B
:100720008093B000C093B30012C08091B00080628B
:100730008093B000C093B4000AC0C038D1051CF447
:10074000812F60E002C0812F61E00E94EA03DF9107
:10075000CF911F910895CF93DF93482F50E0CA01A6
:1007600086569F4FFC0134914A575F4FFA0184919E
:10077000882369F190E0880F991FFC01E859FF4F29
:10078000A591B491FC01EE58FF4FC591D491662319
:1007900051F42FB7F8948C91932F909589238C93D3
:1007A000888189230BC0623061F42FB7F8948C9153
:1007B000932F909589238C938881832B88832FBFD7
:1007C00006C09FB7F8948C91832B8C939FBFDF91C9
:1007D000CF910895482F50E0CA0182559F4FFC01E8
:1007E0002491CA0186569F4FFC0194914A575F4F4E
:1007F000FA013491332309F440C0222351F123300C
:1008000071F0243028F42130A1F0223011F514C009
:100810002630B1F02730C1F02430D9F404C08091E3
:1008200080008F7703C0809180008F7D809380004F
:1008300010C084B58F7702C084B58F7D84BD09C098
:100840008091B0008F7703C08091B0008F7D80933E
:10085000B000E32FF0E0EE0FFF1FEE58FF4FA59121
:10086000B4912FB7F894662321F48C919095892345
:1008700002C08C91892B8C932FBF089508951F92ED
:100880000F920FB60F9211242F933F934F938F9394
:100890009F93EF93FF938091C00082FD19C0409118
:1008A000C60080915501282F30E02F5F3F4F2F73F6
:1008B00030708091560190E02817390759F0E09187
:1008C0005501F0E0E95CFE4F42A32093550102C0C0
:1008D0008091C600FF91EF919F918F914F913F9131
:1008E0002F910F900FBE0F901F901895809155017A
:1008F0002091560190E0805C9F4F821B91098F737D
:100900009070892B11F00E943E0408951F920F925F
:100910000FB60F9211242F938F939F93EF93FF9312
:100920009091570180915801981731F48091C1003E
:100930008F7D8093C10010C0E0915801F0E0E75630
:10094000FE4F20818091580190E001968F73907046
:10095000809358012093C600FF91EF919F918F9152
:100960002F910F900FBE0F901F901895AF92BF92CE
:10097000DF92EF92FF920F931F93CF93DF93EC01DF
:100980007A018B01DD24403081EE580780E0680752
:1009900080E0780711F0DD24D39491E0A92EB12CEA
:1009A000E889F989DD2069F0C5010C8C02C0880F47
:1009B000991F0A94E2F7808360E079E08DE390E08C
:1009C00005C0108260E874E88EE190E0A80197010C
:1009D0000E948B072150304040405040569547952B
:1009E0003795279580E12030380720F0DD2011F081
:1009F000DD24D6CFEC85FD853083EE85FF85208311
:100A00001D8EEA89FB89408121E030E0C901088C14
:100A100002C0880F991F0A94E2F7482B4083EA89A5
:100A2000FB894081C901098C02C0880F991F0A9473
:100A3000E2F7482B4083EA89FB894081C9010A8C8F
:100A400002C0880F991F0A94E2F7482B4083EA8975
:100A5000FB8980810B8C02C0220F331F0A94E2F7BE
:100A6000209528232083DF91CF911F910F91FF9034
:100A7000EF90DF90BF90AF900895FC01268D878D99
:100A800030E0205C3F4F281B31092F733070C901C3
:100A90000895FC01968D878D981719F42FEF3FEF7D
:100AA00006C0878DE80FF11D82A1282F30E0C90113
:100AB0000895DC015E969C915E975F968C915F979E
:100AC000981719F42FEF3FEF10C05F968C915F9746
:100AD000FD01E80FF11D92A15F968C915F978F5FEA
:100AE0008F735F968C93292F30E0C9010895DC0144
:100AF0005D968C915D97882339F05096ED91FC912D
:100B00005197808186FFF9CF5D961C920895DC0194
:100B100090968C919097282F30E02F5F3F4F2F7346
:100B2000307091968C91919790E028173907C9F30E
:100B300090968C919097FD01E80FF11DEE59FF4FB3
:100B4000608390962C9390975296ED91FC915397D9
:100B5000208181E090E05B960C905B9702C0880F4B
:100B6000991F0A94E2F7282B208381E05D968C93ED
:100B70005D975096ED91FC915197808180648083C0
:100B800081E090E0089510923A011092390188EEC8
:100B900093E0A0E0B0E080933B0190933C01A093F0
:100BA0003D01B0933E0181E291E090933801809342
:100BB000370110925801809158018093570110928B
:100BC0005601809156018093550185EC90E09093F9
:100BD00044018093430184EC90E09093460180931C
:100BE000450180EC90E0909348018093470181ECAF
:100BF00090E090934A018093490182EC90E09093B9
:100C00004C0180934B0186EC90E090934E018093D1
:100C10004D0184E080934F0183E08093500187E091
:100C20008093510185E08093520181E080935301CC
:100C30000895CF93DF930E9486020E940202C6E7C6
:100C4000D4E00E94FB002097E1F30E947604F9CFE4
:100C5000CF92DF92EF92FF920F931F93CF93DF9388
:100C60007C016B018A01C0E0D0E00FC0D6016D911C
:100C70006D01D701ED91FC910190F081E02DC7014C
:100C80000995C80FD91F015010400115110571F7C2
:100C9000CE01DF91CF911F910F91FF90EF90DF90E8
:100CA000CF900895009729F0BC0180E090E00E9469
:100CB000E4000895089534D008F481E0089504D044
:100CC0006894B1119CC008957FD088F09F5790F030
:100CD000B92F9927B751A0F0D1F0660F771F881F61
:100CE000991F1AF0BA95C9F712C0B13081F086D0B9
:100CF000B1E0089583C0672F782F8827B85F39F057
:100D0000B93FCCF3869577956795B395D9F73EF4BF
:100D100090958095709561957F4F8F4F9F4F089567
:100D2000990F0008550FAA0BE0E8FEEF16161706FC
:100D3000E807F907C0F012161306E407F50798F064
:100D4000621B730B840B950B39F40A2661F0232B7D
:100D5000242B252B21F408950A2609F4A140A695F9
:100D60008FEF811D811D089597F99F6780E870E0DE
:100D700060E008959FEF80EC089500240A94161611
:100D8000170618060906089500240A941216130679
:100D9000140605060895092E0394000C11F4882307
:100DA00052F0BB0F40F4BF2B11F460FF04C06F5F23
:100DB0007F4F8F4F9F4F089557FD9058440F551FF9
:100DC00059F05F3F71F04795880F97FB991F61F0CD
:100DD0009F3F79F087950895121613061406551F44
:100DE000F2CF4695F1DF08C0161617061806991FB0
:100DF000F1CF86957105610508940895E894BB27A5
:100E000066277727CB0197F908958ADF08F48FEFDB
:100E100008950BD0C0CFB1DF28F0B6DF18F09523CE
:100E200009F0A2CFA7CF1124EACFC6DFA0F3959F88
:100E3000D1F3950F50E0551F629FF001729FBB27C1
:100E4000F00DB11D639FAA27F00DB11DAA1F649F6D
:100E50006627B00DA11D661F829F2227B00DA11D20
:100E6000621F739FB00DA11D621F839FA00D611DA6
:100E7000221F749F3327A00D611D231F849F600DC7
:100E8000211D822F762F6A2F11249F5750408AF000
:100E9000E1F088234AF0EE0FFF1FBB1F661F771F8C
:100EA000881F91505040A9F79E3F510570F05CCFCC
:100EB000A6CF5F3FECF3983EDCF386957795679578
:100EC000B795F795E7959F5FC1F7FE2B880F911DAA
:100ED0009695879597F90895629FD001739FF001C9
:100EE000829FE00DF11D649FE00DF11D929FF00DBA
:100EF000839FF00D749FF00D659FF00D9927729FF1
:100F0000B00DE11DF91F639FB00DE11DF91FBD017B
:100F1000CF0111240895A1E21A2EAA1BBB1BFD01CB
:100F20000DC0AA1FBB1FEE1FFF1FA217B307E407C8
:100F3000F50720F0A21BB30BE40BF50B661F771F20
:100F4000881F991F1A9469F7609570958095909500
:100F50009B01AC01BD01CF01089597FB092E052629
:100F60000ED057FD04D0D7DF0AD0001C38F45095BE
:100F70004095309521953F4F4F4F5F4F0895F6F7BD
:100F800090958095709561957F4F8F4F9F4F0895F5
:100F9000EE0FFF1F0590F491E02D09942F923F92E0
:100FA0004F925F926F927F928F929F92AF92BF9279
:100FB000CF92DF92EF92FF920F931F93CF93DF9325
:100FC000CDB7DEB7CA1BDB0B0FB6F894DEBF0FBE82
:100FD000CDBF09942A88398848885F846E847D84CF
:100FE0008C849B84AA84B984C884DF80EE80FD80D1
:100FF0000C811B81AA81B981CE0FD11D0FB6F89447
:0E100000DEBF0FBECDBFED010895F894FFCF07
:10100E0001000000017B07A406EF059805FB0470A4
:10101E0004F603BC03636465666761624300000007
:0E102E0000870528063D055905490577050090
:00000001FF
