:100000000C94E2020C940A030C940A030C940A0365
:100010000C940A030C940A030C940A030C940A032C
:100020000C940A030C940A030C940A030C940A031C
:100030000C940A030C940A030C940A030C940A030C
:100040000C942A100C940A030C94D1120C941813DB
:100050000C940A030C940A030C940A030C940A03EC
:100060000C945A0C0C940A0300000000003E5B4FF5
:100070005B3E3E6B4F6B3E1C3E7C3E1C183C7E3C08
:10008000181C577D571C1C5E7F5E1C00183C180016
:10009000FFE7C3E7FF0018241800FFE7DBE7FF30A6
:1000A000483A060E2629792926407F050507407F14
:1000B00005253F5A3CE73C5A7F3E1C1C08081C1C87
:1000C0003E7F14227F22145F5F005F5F06097F017D
:1000D0007F006689956A606060606094A2FFA29468
:1000E00008047E040810207E201008082A1C080836
:1000F0001C2A08081E101010100C1E0C1E0C303884
:100100003E3830060E3E0E06000000000000005F84
:1001100000000007000700147F147F14242A7F2AA0
:100120001223130864623649562050000807030062
:10013000001C2241000041221C002A1C7F1C2A08AE
:10014000083E080800807030000808080808000011
:1001500060600020100804023E5149453E00427F85
:10016000400072494949462141494D331814127FD4
:100170001027454545393C4A494931412111090774
:100180003649494936464949291E000014000000F5
:1001900040340000000814224114141414140041C7
:1001A00022140802015909063E415D594E7C121184
:1001B000127C7F494949363E414141227F414141BC
:1001C0003E7F494949417F090909013E4141517337
:1001D0007F0808087F00417F41002040413F017FA8
:1001E000081422417F404040407F021C027F7F0470
:1001F00008107F3E4141413E7F090909063E4151B9
:10020000215E7F09192946264949493203017F01A8
:10021000033F4040403F1F2040201F3F4038403FA9
:10022000631408146303047804036159494D4300BF
:100230007F4141410204081020004141417F0402F6
:10024000010204404040404000030708002054548D
:1002500078407F284444383844444428384444286B
:100260007F385454541800087E090218A4A49C78BE
:100270007F0804047800447D40002040403D007F1A
:100280001028440000417F40007C047804787C08FA
:100290000404783844444438FC18242418182424CE
:1002A00018FC7C08040408485454542404043F44B3
:1002B000243C4040207C1C2040201C3C4030403CE2
:1002C00044281028444C9090907C4464544C440042
:1002D00008364100000077000000413608000201A6
:1002E0000204023C2623263C1EA1A161123A404092
:1002F000207A385454555921555579412154547810
:1003000041215554784020545579400C1E527212A8
:100310003955555559395454545939555454580030
:1003200000457C410002457D420001457C40F029AA
:100330002429F0F0282528F07C54554500205454F9
:100340007C547C0A097F493249494932324848483D
:1003500032324A4848303A4141217A3A4240207884
:10036000009DA0A07D39444444393D4040403D3C7F
:1003700024FF2424487E4943662B2FFC2F2BFF09A2
:1003800029F620C0887E0903205454794100004496
:100390007D413048484A32384040227A007A0A0A81
:1003A000727D0D19317D2629292F282629292926F4
:1003B00030484D4020380808080808080808382F39
:1003C00010C8ACBA2F102834FA00007B00000814C3
:1003D0002A142222142A1408AA005500AAAA55AAEF
:1003E00055AA000000FF00101010FF00141414FFA5
:1003F000001010FF00FF1010F010F0141414FC0097
:100400001414F700FF0000FF00FF1414F404FC14A0
:100410001417101F10101F101F1414141F00101099
:1004200010F0000000001F101010101F101010100E
:10043000F010000000FF101010101010101010FF2E
:1004400010000000FF140000FF00FF00001F101745
:100450000000FC04F414141710171414F404F4002E
:1004600000FF00F714141414141414F700F71414F4
:1004700014171410101F101F141414F4141010F07B
:1004800010F000001F101F0000001F14000000FCEF
:10049000140000F010F01010FF10FF141414FF14DB
:1004A0001010101F00000000F010FFFFFFFFFFF012
:1004B000F0F0F0F0FFFFFF0000000000FFFF0F0F63
:1004C0000F0F0F38444438447C2A2A3E147E02021F
:1004D0000606027E027E0263554941633844443C6D
:1004E00004407E201E2006027E020299A5E7A599FF
:1004F0001C2A492A1C4C7201724C304A4D4D303036
:1005000048784830BC625A463D3E494949007E0120
:1005100001017E2A2A2A2A2A44445F444440514A3F
:10052000444040444A51400000FF0103E080FF0086
:100530000008086B6B083612362436060F090F06C2
:10054000000018180000001010003040FF010100EA
:100550001F01011E00191D1712003C3C3C3C00000D
:1005600000000000000000240027002A0000000016
:1005700000250028002B0000000000230026002991
:10058000000404040404040404020202020202033C
:100590000303030303010204081020408001020446
:1005A00008102001020408102000000007000201CA
:1005B0000000030406000000000000000000430EDD
:1005C000DD0E551411241FBECFEFD8E0DEBFCDBF26
:1005D00015E0A0E0B1E0EAE6FFE202C005900D926E
:1005E000A237B107D9F717E0A2E7B5E001C01D9225
:1005F000A830B107E1F715E0C4ECD5E004C02297BC
:10060000FE010E947817CE3BD107C9F70E94AB14B8
:100610000C94B3170C940000A0E0B0E0E2E1F3E02A
:100620000C948417EC01A880B980CA80DB80A114E7
:10063000B104C104D10441F484E2A82E89EDB82E9E
:100640008BE5C82E87E0D82EC601B5012DE133EF2A
:1006500041E050E00E94471727EA31E440E050E0D3
:100660000E94F3167B018C01C601B5012DE133EF29
:1006700041E050E00E944717CA01B9012CEE34EF67
:100680004FEF5FEF0E94F3166E0D7F1D801F911FCD
:1006900097FF04C061507040804090486883798320
:1006A0008A839B839B01AC015F77B901CA01CDB7F7
:1006B000DEB7EAE00C94A0170E940C0308958DE0C9
:1006C00091E00E940C03089560930D0170930E0158
:1006D00080930F01909310010895FC011382128200
:1006E00086E295E091838083758364835783468394
:1006F0007187608753874287158A15861486178607
:10070000168621E0248B8FEF9FEF938B828B918B4A
:10071000808B268B08952F923F924F925F926F921B
:100720007F928F929F92AF92BF92CF92DF92EF9281
:10073000FF920F931F93DF93CF9300D000D0CDB7DC
:10074000DEB73C017C836B836A015901FA82E9823E
:10075000222433249801241B350B37FF03C0309526
:1007600021953F4FC5014B815C81841B950B97FF01
:1007700003C0909581959F4F821793075CF481E0A9
:10078000282E312CC601CB80DC809C838B83C80152
:1007900085015C018B819C81A816B90644F4C501D2
:1007A000AB80BC809C838B83C80186016C012501D2
:1007B000AB81BC814A1A5B0A7801EC18FD08F7FE90
:1007C00004C0F094E194F108F394C016D10624F02B
:1007D00088248A94982C03C0B1E08B2E912CC201FE
:1007E00062E070E00E9412178B0125C0D301ED91E9
:1007F000FC912114310441F00480F581E02DC30106
:10080000B6014B815C8107C00480F581E02DC301F6
:100810006B817C81A60129813A8109950E191F09F6
:1008200017FF04C0C80CD91C040D151DEB81FC81F9
:100830003196FC83EB834B815C81A416B506B4F63C
:100840000F900F900F900F90CF91DF911F910F910C
:10085000FF90EF90DF90CF90BF90AF909F908F90E0
:100860007F906F905F904F903F902F9008954F92A0
:100870005F926F927F928F929F92AF92BF92CF9230
:10088000DF92EF92FF920F931F936C015B014A017D
:1008900039012801DC01ED91FC910284F385E02D02
:1008A00087010995D601ED91FC91A401415050407A
:1008B000440D551D0284F385E02DC601B501930159
:1008C0000995D601ED91FC910084F185E02DC601DA
:1008D000B501A40192010995D601ED91FC9108940E
:1008E000A108B108A60CB71C0084F185E02DC60153
:1008F000B501A401920109951F910F91FF90EF900E
:10090000DF90CF90BF90AF909F908F907F906F902F
:100910005F904F900895CF92DF92EF92FF920F93E6
:100920001F93DC016B017801ED91FC918A0101506C
:100930001040020F131F0680F781E02D96010995E4
:100940001F910F91FF90EF90DF90CF900895CF927D
:10095000DF92EF92FF920F931F93DC016A01C901AE
:100960007801ED91FC9111979B0121503040280FA7
:10097000391F0680F781E02DCD01860109951F9171
:100980000F91FF90EF90DF90CF9008956F927F923C
:100990008F929F92AF92BF92CF92DF92EF92FF928F
:1009A0000F931F93CF93DF935C013A0169014801D4
:1009B000EB01C60ED71E0DC0D501ED91FC91008450
:1009C000F185E02DC501BE01A301940187010995C0
:1009D0002196CC15DD0584F3DF91CF911F910F9106
:1009E000FF90EF90DF90CF90BF90AF909F908F904F
:1009F0007F906F900895EF92FF920F931F93FC01E9
:100A00007B01A081B18120853185028513851E96E9
:100A10000D90BC91A02D60E070E040E050E0FD0141
:100A200009951F910F91FF90EF9008952F923F929B
:100A30004F925F926F927F928F929F92AF92BF92EE
:100A4000CF92DF92EF92FF920F931F93DF93CF939A
:100A5000CDB7DEB72F970FB6F894DEBF0FBECDBF70
:100A60005C015E834D8318870F83FA86E986CB8607
:100A7000DC0118968D919C911997681779070CF0F5
:100A8000A4C01A968D919C911B97481759070CF09A
:100A90009CC0EC2DF0E0FF87EE87CF01880F991FF7
:100AA0008E0F9F1F880F991F860F971F1816190604
:100AB0000CF08BC0CF01F3E0880F991FFA95E1F796
:100AC000840F951F181619060CF07FC085E0289F2B
:100AD000A00111245A8349832B011B011C825C81D4
:100AE000553011F480E005C0E981FA81E859FF4FE3
:100AF00084912C863D866D807E8043011B82C82EAA
:100B0000DD2480FF1CC0D501ED91FC91BB85B13087
:100B100049F40480F581E02DC501B201A3012F81C4
:100B2000388522C00684F785E02DC5016C857D855A
:100B3000A4012E853F858901EF80F88423C0E985D3
:100B4000FA852F813885E217F307E9F0D501ED9199
:100B5000FC91BB85B13051F40480F581E02DC501D5
:100B6000B201A30129853A8509950DC00684F78550
:100B7000E02DC5016C857D85A4012E853F85890109
:100B8000E984FA840995EB81EF5FEB832E853F853D
:100B9000820E931E0894611C711CE83021F0D594DC
:100BA000C7948C2DACCF3C813F5F3C834E855F85E5
:100BB000240E351E0894411C511C89819A8101968E
:100BC0009A838983363009F08ACF2F960FB6F8942E
:100BD000DEBF0FBECDBFCF91DF911F910F91FF9070
:100BE000EF90DF90CF90BF90AF909F908F907F90CD
:100BF0006F905F904F903F902F900895CF92EF921B
:100C0000FF920F931F93CF93DF93EC01262F6A304F
:100C100061F42C8930E003E0220F331F0A95E1F7DD
:100C20008E859F85820F931F37C06D30C9F16C850B
:100C30007D854E855F8508891989EA88FB88CC887F
:100C40000E9416052C8986E0289FB00111248C850E
:100C50009D85680F791F7D876C878E89882301F1B8
:100C6000422F50E08AEF9FEF9C01429FC001439FBB
:100C7000900D529F900D112428853985820F931F66
:100C8000861797076CF413E0440F551F1A95E1F788
:100C90008E859F85840F951F9F878E871D861C8656
:100CA00081E090E0DF91CF911F910F91FF90EF9045
:100CB000CF900895FC01758764875787468708950C
:100CC000FC01662309F461E0648B0895FC01738BD9
:100CD000628B718B608B0895FC0185890895FC01FE
:100CE000808591850895FC018285938508950895F6
:100CF000EF92FF920F931F93CF93DF93DC01EB01F1
:100D00007A01F90155968C915597823071F08330B4
:100D100001F1813041F514966D917C9115976150E8
:100D20007040641B750B9E01FAC016968D919C91C4
:100D3000179701979C01241B350B790114968D910F
:100D40009C9115979C01261B370BE901CE1BDF0BED
:100D50000AC016962D913C911797261B370B2E1B18
:100D60003F0BBA01DCC0F7FE8AC0DBC014968D9140
:100D70009C911597681779070CF0D3C037FF04C012
:100D8000E20FF31F20E030E016964D915C9117972B
:100D9000CF01820F931F481759071CF4FA01E21B79
:100DA000F30B1E161F060CF0BCC0922F2E2F892F9E
:100DB000869586958695A82FB0E0B695BA2FAA2776
:100DC000B795A795AF5EBE4FA60FB71F977019F1E5
:100DD00038E0391B432F50E0FA01E75EFA4FE0811B
:100DE000231750F4421B51098FEF90E002C09595F4
:100DF00087954A95E2F7E8234C910130110511F4EB
:100E00004E2B02C0E0954E234C93231708F489C063
:100E1000231BA058BF4F2830F0F00130110511F40A
:100E20009FEF01C090E0FD01822F9083E058FF4FBB
:100E300088508830D0F7822F8850282F27708695C9
:100E40008695869590E001969695982F8827979598
:100E50008795A80FB91F222309F463C0E22FF0E0A1
:100E6000E770F070EF5EFA4F20814C910130110570
:100E700011F4422B02C0209542234C9352C0169687
:100E80004D915C911797E416F5060CF04AC0D7FF18
:100E900004C0EC0FFD1FC0E0D0E09F012C0F3D1FF0
:100EA00014968D919C911597821793071CF4FA0163
:100EB000EC1BFD0B1E161F06A4F5C70168E070E0D1
:100EC0000E941217DB01B695BA2FAA27B795A795EE
:100ED000AF5EBE4FAC0FBD1F37E0E322FF2481E0C1
:100EE00090E002C0880F991FEA94E2F7982F013032
:100EF000110551F403C08C91892B8D9331978FEF9D
:100F0000EF3FF807C1F70DC0909503C08C9189237E
:100F10008D9331972FEFEF3FF207C1F702C077FFB4
:100F200025CFDF91CF911F910F91FF90EF90089502
:100F3000EF92FF920F931F93CF93DF93EC017B010E
:100F4000DA01F9018D89823059F08330C9F081309E
:100F5000F1F44C815D814A1B5B0B421B530BEAC0D1
:100F60008C819D8101979C01261B370B79018E8115
:100F70009F819C01241B350BD901AE1BBF0B07C001
:100F80006E817F81615070406E197F09D3C0F7FE7A
:100F90004DC0D2C0AE81BF816A177B070CF0CCC0B8
:100FA00057FF04C0E40FF51F40E050E09F01240FFD
:100FB000351F8C819D81821793071CF4FD01E41B72
:100FC000F50B1E161F060CF0B7C0DB0193E0B595BC
:100FD000A7959A95E1F7B695BA2FAA27B795A79541
:100FE000AF5EBE4FA40FB51F6770707081E090E0D8
:100FF00002C0880F991F6A95E2F7982F01301105FA
:1010000051F403C08C91892B8D9331973FEFEF3FC3
:10101000F307C1F791C0909503C08C9189238D93FC
:1010200031978FEFEF3FF807C1F786C08C819D8124
:10103000E816F9060CF080C0B7FF04C0EA0FFB1FEA
:10104000A0E0B0E02E813F81CF018A0F9B1F2817BF
:1010500039071CF4F901EA1BFB0B1E161F060CF0E6
:101060006BC09A2F2E2F8A2F869586958695A82F4E
:10107000B0E0B695BA2FAA27B795A795AF5EBE4F39
:10108000AE0DBF1D492F477011F138E0341B432FBF
:1010900050E0FA01E75EFA4FE081231750F4421B5B
:1010A00051098FEF90E002C0959587954A95E2F738
:1010B000E8234C910130110511F44E2B02C0E0954C
:1010C0004E234C932317C0F1231BA058BF4F283049
:1010D000F0F00130110511F49FEF01C090E0FD0127
:1010E000822F9083E058FF4F88508830D0F7822FAE
:1010F0008850282F277086958695869590E00196D2
:101100009695982F882797958795A80FB91F222322
:1011100099F0E22FF0E0E770F070EF5EFA4F208177
:101120004C910130110511F4422B02C0209542234D
:101130004C9302C077FF2ECFDF91CF911F910F917B
:10114000FF90EF90089580E094E0E1E1F1E0DF01AD
:101150009C011D9221503040E1F708951F93DC015E
:10116000162F59968C9159978F3F09F469C0939621
:10117000ED91FC919497808199969C919997892BF8
:1011800080839596ED91FC91969790819A968C919B
:101190009A978095892380839396ED91FC919497FB
:1011A000908199968C9199978095892380835E96FA
:1011B0008C915E97882331F06EBD0DB407FEFDCF94
:1011C0008EB534C030E840E050E070E09196ED918B
:1011D000FC919297908198968C919897809589230D
:1011E0008083832F90E0862397235F96ED91FC9177
:1011F000909797962C919797892B21F08081822B3D
:10120000808304C080812095282320839196ED91CE
:10121000FC919297808198969C919897892B8083D6
:1012200036954F5F5F4F4830510581F69396ED91AB
:10123000FC919497808199969C91892B808317C00B
:1012400057966C91772767FD709586E296E00E942D
:10125000090E86E296E060E00E948B0E86E296E040
:10126000612F0E948B0E86E296E00E94CE0E1F91A7
:101270000895662311F067EA01C066EA0E94AE088D
:101280000895CF92DF92EF92FF920F931F93CF9327
:10129000DF93EC0161E20E94AE08CE0160E00E94A3
:1012A000AE08CE016FE70E94AE08CE0162E20E9456
:1012B000AE08CE0160E00E94AE08CE0167E00E9459
:1012C000AE08898D8F3F09F454C0EBA1FCA1808149
:1012D00099A5892B8083EDA1FEA180819AA5892BF8
:1012E0008083EBA1FCA1908189A5809589238083CF
:1012F000A1E1B1E09C918E8D882331F09EBD0DB4AB
:1013000007FEFDCF8EB529C030E840E050E0692FE0
:1013100070E0E9A1FAA1908188A580958923808356
:10132000832F90E086239723EF8DF8A12FA1892B9F
:1013300021F08081822B808304C080812095282326
:101340002083E9A1FAA1808198A5892B8083369515
:101350004F5F5F4F48305105E1F6119685E0A131AE
:10136000B80741F6EBA1FCA1808199A5892B808368
:1013700034C00091B8008CE08093B800EE24FF24C4
:101380006F89772767FD709586E296E00E94090EC7
:1013900086E296E060E40E948B0E51E1C52E51E09A
:1013A000D52ECE0CDF1C10E086E296E0F6016191AE
:1013B0006F010E948B0E1F5F1031B1F780E190E04A
:1013C000E80EF91E86E296E00E94CE0E90E0E91645
:1013D00094E0F906A9F60093B800DF91CF911F9130
:1013E0000F91FF90EF90DF90CF9008951F93CF93D0
:1013F000DF93EC01162F688F4F8B898D8F3F09F497
:1014000079C08B8D61E00E94A1118D8D61E00E94F9
:10141000A111ED8D2E2F332727FD3095F901EF57C0
:10142000FA4FE491F0E0EE0FFF1FE359FA4F859178
:1014300094919CA38BA32B563A4FF901849189A7D1
:10144000EB8D2E2F332727FD3095F901EF57FA4FFB
:10145000E491F0E0EE0FFF1FE359FA4F859194916C
:101460009EA38DA32B563A4FF90184918AA78E8DA6
:10147000882309F036C0898D61E00E94A1118A8D10
:1014800061E00E94A111EA8D2E2F332727FD3095B0
:10149000F901EF57FA4FE491F0E0EE0FFF1FE35927
:1014A000FA4F859194919AA389A32B563A4FF9014B
:1014B000849188A7E98D2E2F332727FD3095F901D8
:1014C000EF57FA4FE491F0E0EE0FFF1FE359FA4FA8
:1014D0008591949198A38F8F2B563A4FF90184915F
:1014E0008FA38E8D882351F00E94D20B84E00E943E
:1014F000C10B04C086E296E00E94D20E8C8D61E0A2
:101500000E94A1118C8D61E00E94E01161E070E009
:1015100080E090E00E94B7108C8D60E00E94E011A6
:101520006AE070E080E090E00E94B7108C8D61E08E
:101530000E94E011CE016EEA0E94AE08CE0165ED78
:101540000E94AE08CE0160E80E94AE08CE0168EAB3
:101550000E94AE08CE016FE30E94AE08CE0163ED9B
:101560000E94AE08CE0160E00E94AE08CE0160E4A9
:101570000E94AE08CE016DE80E94AE08113019F449
:10158000CE0160E102C0CE0164E10E94AE08CE014E
:1015900060E20E94AE08CE0160E00E94AE08CE017B
:1015A00061EA0E94AE08CE0168EC0E94AE08CE014E
:1015B0006AED0E94AE08CE0162E10E94AE08CE0143
:1015C00061E80E94AE08113019F4CE016FE902C043
:1015D000CE016FEC0E94AE08CE0169ED0E94AE080C
:1015E000113019F4CE0162E202C0CE0161EF0E9417
:1015F000AE08CE016BED0E94AE08CE0160E40E9401
:10160000AE08CE0164EA0E94AE08CE0166EA0E94EE
:10161000AE08CE016FEA0E94AE08DF91CF911F9114
:101620000895BF92CF92DF92EF92FF920F931F9394
:101630006C01B62EF42E122F60E870E040E450E00A
:101640000E946D038EE395E0F60191838083E58E21
:10165000048F138FF28EB18E168E1F910F91FF9013
:10166000EF90DF90CF90BF900895CF92DF92EF92EE
:10167000FF920F931F93CF93DF93EC017B018A01BD
:10168000690177FD75C00E946F06E816F9060CF037
:101690006FC017FD6DC0CE010E94730608171907B1
:1016A0000CF066C058C08C819D810197801B910B06
:1016B00087017C0116C08C819D8101979C012E19A8
:1016C0003F0979018E819F8101979C01201B310B7D
:1016D000890107C08E819F8101978E199F0978012A
:1016E0008C0198012770307081E0C816D104C1F4D4
:1016F000C80168E070E00E941217FB01F695FE2F0A
:10170000EE27F795E795EE0DFF1DEF5EFE4F02C049
:10171000CC0CDD1C2A95E2F780818C29808328C0BF
:10172000C80168E070E00E941217FB01F695FE2FD9
:10173000EE27F795E795EE0DFF1DEF5EFE4F81E07A
:1017400090E002C0880F991F2A95E2F780952081CA
:10175000282320830DC0CE010E946C06823009F43C
:10176000AACF833009F4B6CF813009F0BACF9BCF2E
:10177000DF91CF911F910F91FF90EF90DF90CF906D
:1017800008952CB5382F33702C7F322B3CBD2DB5EE
:1017900090E0959587959595879581702E7F822B02
:1017A0008DBD08958AE061E00E94E0118AE061E069
:1017B0000E94A1118CB580618CBD8CB580648CBDFC
:1017C0008DE061E00E94A1118BE061E00E94A11117
:1017D00008950F931F93582F122F413210F081E07C
:1017E00045C0809197058823E1F782E080939705B3
:1017F000009395058FEF80939805109273054093A1
:101800007405A5E7B5E0FB0102C081918D938E2F91
:10181000861B8417D0F31092720580917205550FC4
:10182000852B8093720580919605813041F410924A
:101830009605809172058093BB0085EC01C085EE12
:101840008093BC001123A9F080919705823089F420
:10185000FBCF80919805803211F482E007C080911F
:101860009805803311F084E001C083E01F910F914F
:101870000895809198058F3F61F780E0F7CF482F5A
:10188000613210F081E0089580919705843011F065
:1018900082E008956093BD05A0ECB5E0842F9C0123
:1018A000F90102C081918D938E2F841B8617D0F38E
:1018B00080E008951F920F920FB60F9211242F937C
:1018C0003F934F935F936F937F938F939F93AF93C8
:1018D000BF93EF93FF938091B90090E0887F907061
:1018E0008036910509F4F2C081369105CCF5883235
:1018F000910509F47BC089329105B4F480319105DA
:1019000009F46FC0813191053CF4009709F447C197
:10191000089709F04FC165C08831910509F466C088
:10192000809709F047C182C08034910509F4A4C0B2
:101930008134910544F48033910509F482C0C8973D
:1019400009F038C189C08035910509F489C088350E
:10195000910509F496C08834910509F02BC1AEC0F9
:101960008839910509F413C189399105ECF4883758
:10197000910509F4ABC0893791054CF4883691057F
:1019800009F4A4C08037910509F014C19FC08838BC
:10199000910509F4FCC08039910509F49DC0803897
:1019A000910509F007C198C0803B910509F4C6C0B4
:1019B000813B91054CF4803A910509F49FC0883A27
:1019C000910509F0F7C0BAC0803C910509F4E3C065
:1019D000883C910509F4DFC0883B910509F0EAC015
:1019E000C2C0809172058093BB00CFC090917305F7
:1019F00080917405981768F490917305E92FF0E0D1
:101A0000EB58FA4F80818093BB009F5F90937305E2
:101A1000BCC080919505882309F44BC085ED809367
:101A2000BC008091BC0084FDFCCFC2C080E28093EA
:101A3000980585ED8093BC008091BC0084FDFCCFAF
:101A4000B7C080E38093980585ED8093BC008091BA
:101A5000BC0084FDFCCFACC088E3809398059BC09C
:101A6000809173059091BB00E82FF0E0EB58FA4F9E
:101A700090838F5F809373059091730580917405B7
:101A800082C0809173059091BB00E82FF0E0EB5885
:101A9000FA4F90838F5F809373058091950588231B
:101AA00041F085ED8093BC008091BC0084FDFCCFAB
:101AB0007FC081E08093960584EA6EC085ED8093B7
:101AC000BC008091BC0084FDFCCF72C083E0809399
:101AD00097051092990559C080919905803208F0B8
:101AE00056C0809199059091BB00E82FF0E0E65632
:101AF000FA4F90838F5F8093990547C08091990535
:101B0000803230F4E0919905F0E0E656FA4F108209
:101B100085ED8093BC008091BC0084FDFCCF1092C9
:101B2000970560919905E091BA05F091BB058AE9A6
:101B300095E070E00995109299052DC084E080939E
:101B400097051092BC051092BD05E091BE05F0917D
:101B5000BF0509958091BD05882329F481E0809314
:101B6000BD051092C0059091BC05E92FF0E0E0544E
:101B7000FA4F80818093BB009F5F9093BC0590914A
:101B8000BC058091BD05981710F485EC01C085E86F
:101B90008093BC000FC085EC8093BC0009C01092FC
:101BA000980585ED8093BC008091BC0084FDFCCF3E
:101BB00010929705FF91EF91BF91AF919F918F91F7
:101BC0007F916F915F914F913F912F910F900FBE39
:101BD0000F901F9018951092970581E080939505BE
:101BE0001092960582E161E00E94E01183E161E0DC
:101BF0000E94E011E9EBF0E080818E7F808380819C
:101C00008D7F808388E48093B80085E48093BC0056
:101C1000089581E0809325066093020610922306C2
:101C20001092240608952091010630E0809100066C
:101C3000281B3109C90108954091000680910106D1
:101C4000481718F02FEF3FEF0AC0E42FF0E0E05202
:101C5000FA4F8081282F30E04F5F40930006C90182
:101C60000895E091000680910106E81718F0EFEF63
:101C7000FFEF06C0F0E0E052FA4F8081E82FF0E07D
:101C8000CF0108950895109229061092280688EE33
:101C900093E0A0E0B0E080932A0690932B06A093F7
:101CA0002C06B0932D0686E595E090932706809349
:101CB00026060895CF92DF92EF92FF920F931F9323
:101CC000CF93DF937C016B018A01809125068823E5
:101CD000A1F0C0E0D0E00DC0D701ED91FC91D6019C
:101CE000AC0FBD1F0190F081E02DC7016C910995EB
:101CF0002196C017D10780F304C0CB01642F0E9446
:101D00003F0CC801DF91CF911F910F91FF90EF9091
:101D1000DF90CF900895DF93CF930F92CDB7DEB7CA
:101D2000FC016983809125068823C9F080912406EF
:101D3000803238F081E090E09383828320E030E0CD
:101D400015C080912306E82FF0E0ED5FF94F9981EF
:101D500090838F5F809323068093240605C0CE0175
:101D6000019661E00E943F0C21E030E0C9010F9034
:101D7000CF91DF9108950F93062F8091020663E0C3
:101D800076E04091240621E00E94E90B10922306A0
:101D900010922406109225060F91089561E00E948A
:101DA000BB0E0895109200061092010610922306B1
:101DB000109224060E94EB0D0895EF920F9382E398
:101DC00096E069E04AE02BE00DE03CE0E32E0E9463
:101DD000110B0F91EF90089586E696E040E052ECEB
:101DE00061E070E00E94481380E00E941F110E9491
:101DF0003415089508950F931F93182F062F61E04F
:101E00000E94A111812F602F0E94E0111F910F915C
:101E10000895DF92EF92FF920F931F93D82E142F05
:101E2000052FF62EE72E642F752F8F2D9E2D20E087
:101E300030E040E050E00E943D1588235CF40F2E16
:101E4000F0E0EF2EF0E0FF2EF0E00F2FF0E01F2F7C
:101E5000F02D1DC0612F702F8F2D9E2D20E030E0C2
:101E600048EC52E40E948C1618163CF0812F902FFB
:101E7000AF2DBE2D7C018D010AC00F2EF0E0EF2E9C
:101E8000F0E0FF2EF8EC0F2FF2E41F2FF02D8D2D38
:101E900061E00E94A111C801B70123E333E343E2EB
:101EA00050E40E9490160E94A9159B01AC018D2D53
:101EB000B9010E9441111F910F91FF90EF90DF90A7
:101EC000089582E396E062E04CE30E94F60982E323
:101ED00096E00E94410968EE73E080E090E00E9485
:101EE000B71082E396E00E94A30882E396E062E0E6
:101EF0000E94600682E396E061E070E00E94660660
:101F000082E396E060E070E040E050E00E945A0614
:101F100082E396E00E94A3080E94EC0E83E160E059
:101F20000E94FB0E82E090E00E94721083E161E06B
:101F30000E94FB0E8AE090E00E94721083E160E054
:101F40000E94FB0E82E160E00E94A11182E161E04B
:101F500020E432E44FE050E00E9434120E94DA158F
:101F600020E030E048E652E40E94411520E030E0F5
:101F700040EA51E40E943D1588238CF584E060E03E
:101F80000E94FB0E82E060E00E94FB0E85E060E0B4
:101F90000E94FB0E87E060E00E94FB0E83E040E0C1
:101FA00050E060E070E00E94090F86E040E050E001
:101FB00060E070E00E94090F68EE73E080E090E05E
:101FC0000E94B71082E396E060E070E040E050E0ED
:101FD0000E945A0682E396E060E071E030C084E03F
:101FE00060E00E94FB0E82E061E00E94FB0E85E053
:101FF00060E00E94FB0E87E061E00E94FB0E83E040
:1020000040E050E068E472E40E94090F86E040E09E
:1020100050E068E472E40E94090F68EE73E080E02B
:1020200090E00E94B71082E396E060E070E040E04C
:1020300050E00E945A0682E396E065E071E00E945B
:10204000211582E396E00E94410982E396E00E9416
:10205000A30864CF1F920F920FB60F9211242F93F3
:102060003F938F939F93AF93BF938091610690911D
:102070006206A0916306B0916406309165060196F0
:10208000A11DB11D232F2D5F2D3720F02D57019657
:10209000A11DB11D20936506809361069093620691
:1020A000A0936306B093640680915D0690915E06EE
:1020B000A0915F06B09160060196A11DB11D8093AD
:1020C0005D0690935E06A0935F06B0936006BF9195
:1020D000AF919F918F913F912F910F900FBE0F90D5
:1020E0001F901895019739F0880F991F880F991F35
:1020F00002970197F1F70895789484B5826084BDC2
:1021000084B5816084BD85B5826085BD85B58160FB
:1021100085BDEEE6F0E0808181608083E1E8F0E05B
:102120001082808182608083808181608083E0E88A
:10213000F0E0808181608083E1EBF0E08081846069
:102140008083E0EBF0E0808181608083EAE7F0E06B
:1021500080818460808380818260808380818160CF
:1021600080838081806880831092C1000895EF92FF
:10217000FF920F931F93CF93DF937B018C013FB7A7
:10218000F89480915D0690915E06A0915F06B091F3
:10219000600626B5A89B05C02F3F19F00196A11D2A
:1021A000B11D3FBFBA2FA92F982F8827820F911DED
:1021B000A11DB11D52E0880F991FAA1FBB1F5A9580
:1021C000D1F7EC0130C00E943C153FB7F8948091E4
:1021D0005D0690915E06A0915F06B091600626B5FF
:1021E000A89B05C02F3F19F00196A11DB11D3FBF4F
:1021F000BA2FA92F982F8827820F911DA11DB11DDD
:1022000032E0880F991FAA1FBB1F3A95D1F78C1B8C
:102210009D0B885E9340B8F20894E108F10801092B
:102220001109C851DC4FE114F1040105110559F6FB
:10223000DF91CF911F910F91FF90EF900895982F0C
:102240008E3008F09E509770809121058295880FFE
:10225000880F807C892B80937C0080917A00806439
:1022600080937A0080917A0086FDFCCF20917800DF
:1022700040917900942F80E030E0282B392BC90160
:1022800008951F93CF93DF93182FEB0161E00E9415
:10229000A111209709F44AC0CF3FD10509F449C0E4
:1022A000E12FF0E0E755FA4F84918330C1F084309C
:1022B00028F4813051F08230B1F50CC0863019F12C
:1022C000873049F1843079F514C084B5806884BDC5
:1022D000C7BD33C084B5806284BDC8BD2EC08091A7
:1022E0008000806880938000D0938900C09388002C
:1022F00024C080918000806280938000D0938B0006
:10230000C0938A001AC08091B00080688093B000AA
:10231000C093B30012C08091B00080628093B0007F
:10232000C093B4000AC0C038D1051CF4812F60E00E
:1023300002C0812F61E00E94E011DF91CF911F91D7
:102340000895CF93DF93482F50E0CA018B569A4FE0
:10235000FC0134914F575A4FFA018491882369F157
:1023600090E0880F991FFC01ED59FA4FA591B491A7
:10237000FC01E359FA4FC591D491662351F42FB76C
:10238000F8948C91932F909589238C93888189233D
:102390000BC0623061F42FB7F8948C91932F909515
:1023A00089238C938881832B88832FBF06C09FB796
:1023B000F8948C91832B8C939FBFDF91CF910895DC
:1023C000482F50E0CA0187559A4FFC012491CA0159
:1023D0008B569A4FFC0194914F575A4FFA01349102
:1023E000332309F440C0222351F1233071F024300B
:1023F00028F42130A1F0223011F514C02630B1F0BC
:102400002730C1F02430D9F404C0809180008F7748
:1024100003C0809180008F7D8093800010C084B5C0
:102420008F7702C084B58F7D84BD09C08091B000D4
:102430008F7703C08091B0008F7D8093B000E32F31
:10244000F0E0EE0FFF1FE359FA4FA591B4912FB7BB
:10245000F894662321F48C919095892302C08C9185
:10246000892B8C932FBF08958F929F92AF92BF922A
:10247000CF92DF92EF92FF920F931F93CF93DF9350
:10248000A82FB0E0CD018B569A4FFC018490AF5736
:10249000BA4FFD018491662311F4992401C0982C50
:1024A0006FEFA62E6FEFB62E6FEFC62E6FE0D62E13
:1024B000A222B322C422D522682F70E0660F771FB4
:1024C00069587A4FEE24FF248701FB01A591B4914E
:1024D0000BC0EA14FB040C051D0509F44EC008945A
:1024E000E11CF11C011D111D8C918821891589F3B6
:1024F0000CC0EA14FB040C051D0509F43EC0089449
:10250000E11CF11C011D111D03C0FB01A591B4913B
:102510008C918821891569F720E030E040E050E097
:10252000FB01C591D4910FC0DA01C9018E0D9F1D29
:10253000A01FB11F8A159B05AC05BD05F1F02F5FEB
:102540003F4F4F4F5F4F88818821891569F3CA013A
:10255000B90125E130E040E050E00E94F3169B0114
:10256000AC01205F3F4F4F4F5F4F84E0569547953A
:10257000379527958A95D1F704C020E030E040E0F8
:1025800050E0B901CA01DF91CF911F910F91FF90E7
:10259000EF90DF90CF90BF90AF909F908F90089575
:1025A00008951F920F920FB60F9211242F933F930D
:1025B0004F938F939F93EF93FF938091C00082FD81
:1025C00019C04091C60080918406282F30E02F5F0B
:1025D0003F4F2F7330708091850690E028173907A0
:1025E00059F0E0918406F0E0EA59F94F42A32093B4
:1025F000840602C08091C600FF91EF919F918F9158
:102600004F913F912F910F900FBE0F901F901895F3
:10261000809184062091850690E0805C9F4F821B0C
:1026200091098F739070892B11F00E94D012089538
:102630001F920F920FB60F9211242F938F939F9397
:10264000EF93FF939091860680918706981731F457
:102650008091C1008F7D8093C10010C0E0918706FA
:10266000F0E0E853F94F20818091870690E00196D1
:102670008F739070809387062093C600FF91EF912F
:102680009F918F912F910F900FBE0F901F901895D3
:10269000AF92BF92DF92EF92FF920F931F93CF936F
:1026A000DF93EC017A018B01DD24403081EE580785
:1026B00080E0680780E0780711F0DD24D39491E092
:1026C000A92EB12CE889F989DD2069F0C5010C8CAF
:1026D00002C0880F991F0A94E2F7808360E079E0D6
:1026E0008DE390E005C0108260E874E88EE190E030
:1026F000A80197010E9425172150304040405040CA
:10270000569547953795279580E12030380720F07A
:10271000DD2011F0DD24D6CFEC85FD853083EE85FC
:10272000FF8520831D8EEA89FB89408121E030E00E
:10273000C901088C02C0880F991F0A94E2F7482B40
:102740004083EA89FB894081C901098C02C0880F56
:10275000991F0A94E2F7482B4083EA89FB8940815C
:10276000C9010A8C02C0880F991F0A94E2F7482B0E
:102770004083EA89FB8980810B8C02C0220F331FC2
:102780000A94E2F7209528232083DF91CF911F91AF
:102790000F91FF90EF90DF90BF90AF900895FC01F4
:1027A000268D878D30E0205C3F4F281B31092F7329
:1027B0003070C9010895FC01968D878D981719F422
:1027C0002FEF3FEF06C0878DE80FF11D82A1282F64
:1027D00030E0C9010895DC015E969C915E975F969A
:1027E0008C915F97981719F42FEF3FEF10C05F9609
:1027F0008C915F97FD01E80FF11D92A15F968C917E
:102800005F978F5F8F735F968C93292F30E0C9019C
:102810000895DC015D968C915D97882339F0509680
:10282000ED91FC915197808186FFF9CF5D961C92C6
:102830000895DC0190968C919097282F30E02F5FBF
:102840003F4F2F73307091968C91919790E028179D
:102850003907C9F390968C919097FD01E80FF11D0F
:10286000EE59FF4F608390962C9390975296ED917E
:10287000FC915397208181E090E05B960C905B97F0
:1028800002C0880F991F0A94E2F7282B208381E069
:102890005D968C935D975096ED91FC915197808158
:1028A0008064808381E090E0089510926906109220
:1028B000680688EE93E0A0E0B0E080936A0690930B
:1028C0006B06A0936C06B0936D0686E695E0909338
:1028D000670680936606109287068091870680932C
:1028E000860610928506809185068093840685EC85
:1028F00090E0909373068093720684EC90E090933E
:1029000075068093740680EC90E090937706809330
:10291000760681EC90E0909379068093780682ECBD
:1029200090E090937B0680937A0686EC90E09093FB
:102930007D0680937C0684E080937E0683E080930E
:102940007F0687E08093800685E08093810681E0A2
:10295000809382060895CF93DF930E947C100E949B
:10296000610FC8E0D3E10E94FA0E2097E1F30E94C4
:102970000813F9CF0895CF92DF92EF92FF920F9351
:102980001F93CF93DF937C016B018A01C0E0D0E0FD
:102990000FC0D6016D916D01D701ED91FC910190B1
:1029A000F081E02DC7010995C80FD91F01501040D3
:1029B0000115110571F7CE01DF91CF911F910F9194
:1029C000FF90EF90DF90CF900895EF92FF920F93DA
:1029D0001F938C01DC01ED91FC910190F081E02DC1
:1029E0006DE009957C01D801ED91FC910190F08199
:1029F000E02DC8016AE009959C012E0D3F1DC9011B
:102A00001F910F91FF90EF900895CF93DF93EC010A
:102A10006115710519F420E030E00FC0DB010D9065
:102A20000020E9F71197A61BB70BE881F981028016
:102A3000F381E02DAD0109959C01C901DF91CF9192
:102A40000895EF92FF920F931F937C010E9405154A
:102A50008C01C7010E94E514080F191FC8011F91BE
:102A60000F91FF90EF900895009729F0BC0180E04E
:102A700090E00E94640308950895D9D008F481E09D
:102A800008950CD00FC107D140F0FED030F021F4F2
:102A90005F3F19F0F0C0511139C1F3C014D198F360
:102AA0009923C9F35523B1F3951B550BBB27AA27CF
:102AB00062177307840738F09F5F5F4F220F331F41
:102AC000441FAA1FA9F333D00E2E3AF0E0E830D00D
:102AD00091505040E695001CCAF729D0FE2F27D010
:102AE000660F771F881FBB1F261737074807AB07DE
:102AF000B0E809F0BB0B802DBF01FF2793585F4F53
:102B00002AF09E3F510568F0B6C000C15F3FECF36C
:102B1000983EDCF3869577956795B795F7959F5F17
:102B2000C9F7880F911D9695879597F90895E1E06B
:102B3000660F771F881FBB1F621773078407BA07CA
:102B400020F0621B730B840BBA0BEE1F88F7E09525
:102B5000089504D06894B111D9C00895BCD088F00C
:102B60009F5790F0B92F9927B751A0F0D1F0660F79
:102B7000771F881F991F1AF0BA95C9F712C0B13094
:102B800081F0C3D0B1E00895C0C0672F782F8827A7
:102B9000B85F39F0B93FCCF3869577956795B395D3
:102BA000D9F73EF490958095709561957F4F8F4F42
:102BB0009F4F0895E89409C097FB3EF49095809547
:102BC000709561957F4F8F4F9F4F9923A9F0F92FF3
:102BD00096E9BB279395F695879577956795B79571
:102BE000F111F8CFFAF4BB0F11F460FF1BC06F5F57
:102BF0007F4F8F4F9F4F16C0882311F096E911C069
:102C0000772321F09EE8872F762F05C0662371F089
:102C100096E8862F70E060E02AF09A95660F771F9D
:102C2000881FDAF7880F9695879597F90895990F79
:102C30000008550FAA0BE0E8FEEF16161706E80786
:102C4000F907C0F012161306E407F50798F0621BA7
:102C5000730B840B950B39F40A2661F0232B242B7C
:102C6000252B21F408950A2609F4A140A6958FEF9B
:102C7000811D811D089597F99F6780E870E060E0ED
:102C800008959FEF80EC089500240A941616170605
:102C900018060906089500240A941216130614064D
:102CA00005060895092E0394000C11F4882352F0B0
:102CB000BB0F40F4BF2B11F460FF04C06F5F7F4F68
:102CC0008F4F9F4F089557FD9058440F551F59F04F
:102CD0005F3F71F04795880F97FB991F61F09F3F09
:102CE00079F087950895121613061406551FF2CF32
:102CF0004695F1DF08C0161617061806991FF1CF82
:102D000086957105610508940895E894BB276627A8
:102D10007727CB0197F908958ADF08F48FEF08959C
:102D20000BD0C0CFB1DF28F0B6DF18F0952309F043
:102D3000A2CFA7CF1124EACFC6DFA0F3959FD1F38E
:102D4000950F50E0551F629FF001729FBB27F00D59
:102D5000B11D639FAA27F00DB11DAA1F649F6627AE
:102D6000B00DA11D661F829F2227B00DA11D621FFD
:102D7000739FB00DA11D621F839FA00D611D221FB7
:102D8000749F3327A00D611D231F849F600D211D9B
:102D9000822F762F6A2F11249F5750408AF0E1F03E
:102DA00088234AF0EE0FFF1FBB1F661F771F881F87
:102DB00091505040A9F79E3F510570F05CCFA6CFCF
:102DC0005F3FECF3983EDCF3869577956795B79572
:102DD000F795E7959F5FC1F7FE2B880F911D96959C
:102DE000879597F90895629FD001739FF001829FA4
:102DF000E00DF11D649FE00DF11D929FF00D839F8A
:102E0000F00D749FF00D659FF00D9927729FB00D26
:102E1000E11DF91F639FB00DE11DF91FBD01CF0139
:102E20001124089597FB092E07260AD077FD04D0B8
:102E300049D006D000201AF4709561957F4F08950F
:102E4000F6F7909581959F4F0895A1E21A2EAA1B3F
:102E5000BB1BFD010DC0AA1FBB1FEE1FFF1FA2174A
:102E6000B307E407F50720F0A21BB30BE40BF50B47
:102E7000661F771F881F991F1A9469F760957095D0
:102E8000809590959B01AC01BD01CF01089597FB02
:102E9000092E05260ED057FD04D0D7DF0AD0001C1E
:102EA00038F450954095309521953F4F4F4F5F4FE7
:102EB0000895F6F790958095709561957F4F8F4FA7
:102EC0009F4F0895AA1BBB1B51E107C0AA1FBB1F40
:102ED000A617B70710F0A61BB70B881F991F5A95A6
:102EE000A9F780959095BC01CD010895EE0FFF1FC5
:102EF0000590F491E02D09942F923F924F925F92AA
:102F00006F927F928F929F92AF92BF92CF92DF92F9
:102F1000EF92FF920F931F93CF93DF93CDB7DEB75E
:102F2000CA1BDB0B0FB6F894DEBF0FBECDBF0994F2
:102F30002A88398848885F846E847D848C849B8449
:102F4000AA84B984C884DF80EE80FD800C811B8157
:102F5000AA81B981CE0FD11D0FB6F894DEBF0FBE86
:0A2F6000CDBFED010895F894FFCFF6
:102F6A0053544F5000464F525741524400010000FB
:102F7A000000000000000000000000000000000047
:102F8A000000000000000000000000000000000037
:102F9A000000000000000000000000000000000027
:102FAA000000000000000000000000000000000017
:102FBA008080800000000000000000000000000087
:102FCA0000008080C0C00000000000000000000077
:102FDA0000000000000000000000000000000000E7
:102FEA0000000000000000000000000000000000D7
:102FFA0000000000000000000000000000000000C7
:10300A00000000000080C0E0F0F8FCF8E0000000DA
:10301A0000000000000000000000000000008080A6
:10302A008080800080800000000080808080800096
:10303A00FFFFFF0000000080808080000080800089
:10304A000080FFFF80800080800080808080008078
:10305A00800000000000808000008C8E84000080C8
:10306A00F8F8F880000000000000000000000000EE
:10307A0000F0F0F0F0F0F0F0F0F0F0F0F0E0E0C086
:10308A008000E0FCFEFFFFFF7FFFFFFFFFFF000065
:10309A00000000000000000000000000FEFFC70161
:1030AA0001010183FFFF00007CFEC70101010183CA
:1030BA00FFFFFF0038FEC78301010183C7FFFF003E
:1030CA000001FFFF010100FFFF0701010100007F6E
:1030DA00FF80000000FFFF7F0000FFFFFF000001EC
:1030EA00FFFFFF01000000000000000000000000D8
:1030FA0000030F3F7F7FFFFFFFFFFFFFFFE7C7C709
:10310A008F8F9FBFFFFFC3C0F0FFFFFFFFFFFCFCD5
:10311A00FCFCFCFCFCFCF8F8F0F0E0C00001030346
:10312A000303030103030000000001030303030177
:10313A00010301000000010303030301010303006B
:10314A000000030300000003030000000000000069
:10315A00010303030303010000000103010000004F
:10316A00030301000000000000000000000000004E
:10317A000000000080C0E0F0F9FFFFFFFFFF3F1FE3
:10318A000F87C7F7FFFF1F1F3DFCF8F8F8F87C7D93
:10319A00FFFFFFFFFFFFFFFF7F3F0F0700303000F9
:1031AA000000000000000000000000000000000015
:1031BA000000000000FEFEFC00000000000000000D
:1031CA000000000000000000000000000000E0C055
:1031DA000000000000000000000000303000000085
:1031EA0000000000000000000000000000000000D5
:1031FA000000C0FEFFFFFFFFFFFFFFFFFF7F7F3FD3
:10320A001F0F071F7FFFFFF8F8FFFFFFFFFFFEF802
:10321A00E0000000010000000000000000FEFE00C7
:10322A000000FCFEFC0C06060EFCF80000F0F81C80
:10323A000E0606060CFFFFFF0000FEFE000000005F
:10324A00FCFEFC00183C7E66E6CE84000006FFFF0A
:10325A000606FCFEFC0C0606060000FEFE0000C088
:10326A00F8FC4E4646464E7C7840183C76E6CECC74
:10327A0080000000000000000000000000000000C4
:10328A00000000000001070F1F1F3F3F3F3F1F0FB5
:10329A00030000000000000000000000000F0F0003
:1032AA0000000F0F0F000000000F0F000003070EB1
:1032BA000C18180C060F0F0F0000010F0E0C180C3B
:1032CA000F070100040E0C180C0F070000000F0F67
:1032DA0000000F0F0F0000000000000F0F00000099
:1032EA0007070C0C181C0C060600040E0C180C0F11
:1032FA0007000000000000000000000000000000BD
:10330A0000000000000000000000000000000000B3
:10331A0000000000000000000000000000000000A3
:10332A000000000000000000000000000000000093
:10333A000000000000000000000000000000000083
:10334A000000000000000000000000000000000073
:10335A000000000000000000000000000000000063
:10336A000000000000000000000000000000000053
:10337A0000000103070F1F3F7F0080C0E0F0F8FC48
:10338A00FE0100000000FE05BB14BA148B038B0477
:10339A00A7043704C604FB04770600000000FE05F4
:1033AA00BB14350B8B03980778063704C604FB0455
:1033BA003909000000008B0E5A0E130E1C0E310E36
:1033CA00420E000000001914BB14CF13EB13DB13D9
:0233DA000914D4
:00000001FF
