:100000000C9466000C948E000C948E000C948E0060
:100010000C948E000C948E000C948E000C948E0028
:100020000C948E000C948E000C948E000C9488031B
:100030000C948E000C9405010C948E000C948E0090
:100040000C94E2060C948E000C9440090C948709E1
:100050000C948E000C948E000C948E000C948E00E8
:100060000C948E000C948E000000000024002700E9
:100070002A0000000000250028002B0000000000DE
:1000800023002600290004040404040404040202DA
:100090000202020203030303030301020408102007
:1000A0004080010204081020010204081020000012
:1000B0000007000201000003040600000000000029
:1000C0000000F100B405DC05C40AAD0511241FBE13
:1000D000CFEFD8E0DEBFCDBF11E0A0E0B1E0E6E2B7
:1000E000FAE102C005900D92AE31B107D9F713E0E5
:1000F000AEE1B1E001C01D92A133B107E1F710E01C
:10010000CAECD0E004C02297FE010E94CB0CC23C96
:10011000D107C9F70E941A0B0C94060D0C9400002D
:10012000A0E0B0E0E6E9F0E00C94D70CEC01A88088
:10013000B980CA80DB80A114B104C104D10441F4A8
:1001400084E2A82E89EDB82E8BE5C82E87E0D82E44
:10015000C601B5012DE133EF41E050E00E94AE0C45
:1001600027EA31E440E050E00E946D0C7B018C01F5
:10017000C601B5012DE133EF41E050E00E94AE0C25
:10018000CA01B9012CEE34EF4FEF5FEF0E946D0C06
:100190006E0D7F1D801F911F97FF04C0615070403E
:1001A00080409048688379838A839B839B01AC015C
:1001B0005F77B901CA01CDB7DEB7EAE00C94F30C62
:1001C0000E949000089580E091E00E9490000895C0
:1001D00060930001709301018093020190930301E9
:1001E000089580E090E0A8ECB2EC80931E0190931B
:1001F0001F01A0932001B09321010895FC011382F7
:10020000609322011092240108951F920F920FB65D
:100210000F9211242F933F934F935F936F937F938C
:100220008F939F93AF93BF93EF93FF9381EA9FEFD9
:100230009093850080938400809122010E94EC08B5
:10024000482F8091250190912601019690932601D7
:10025000809325018091BF018C3418F085E0809354
:100260002301809123018330D1F0843020F4823047
:1002700009F059C006C0843071F1853009F053C0CF
:100280004CC0442309F04FC0809125019091260174
:100290008436910508F443C01092BF011EC041305E
:1002A00009F041C08091BF01E82FF0E020912501C5
:1002B00030912601EE0FFF1FEE5DFE4F3683258342
:1002C0008F5F8093BF01109226011092250184E078
:1002D0008093230128C04423B9F48091BF01E82F03
:1002E000F0E02091250130912601EE0FFF1FEE5D19
:1002F000FE4F368325838F5F8093BF0110922601C6
:100300001092250183E0E4CF809125019091260190
:100310008536910540F085E0DBCF442321F410922F
:1003200026011092250180912401882329F044237D
:1003300011F42D9A01C02D98FF91EF91BF91AF91CB
:100340009F918F917F916F915F914F913F912F91ED
:100350000F900FBE0F901F9018950F931F938C0155
:10036000FC01868160E00E94980881E090E00E9494
:100370002A07F801868161E00E94980881E090E0F8
:100380000E942A07F801868160E00E94980884E6AE
:1003900090E00E942A071F910F910895CF92DF925B
:1003A000EF92FF920F931F93CF93DF93D82EC92E16
:1003B000282F392FC9018C01C0E0D0E0E62EFF24A0
:1003C000F801878161E00E945908B7010C2E02C034
:1003D000759567950A94E2F76170F80187810E942C
:1003E000980821960F5F1F4FC830D10549F78D2D12
:1003F0009C2D0E94AD01DF91CF911F910F91FF9035
:10040000EF90DF90CF900895CF92DF92EF92FF921E
:100410000F931F93CF93DF93D82EC92E282F392FF8
:10042000C9018C01C0E0D0E0E62EFF24F8018781ED
:1004300061E00E945908B7010C2E02C075956795BE
:100440000A94E2F76170F80187810E94980821966A
:100450000F5F1F4FC430D10549F78D2D9C2D0E9491
:10046000AD01DF91CF911F910F91FF90EF90DF9041
:10047000CF9008951F93CF93DF93EC01162F8C81BB
:10048000642F0E9498088D818F3F19F060E00E94D0
:1004900098088F8584FF05C0CE01612F0E94CE0190
:1004A0000EC0612F70E084E0759567958A95E1F73D
:1004B000CE010E940402CE01612F0E940402DF914E
:1004C000CF911F91089541E00E943A0281E090E0AF
:1004D000089540E00E943A020895FC016089862F49
:1004E0008460808B6C60CF010E946902089561E096
:1004F0000E94690280ED97E00E942A070895CF9339
:10050000DF93EC01423018F08F8588608F874B8B2A
:100510001C8A222329F0413019F48F8584608F874B
:1005200080E593EC0E942A078C8160E00E94980885
:100530008E8160E00E9498088D818F3F19F060E005
:100540000E9498086F8564FD1DC0CE0163E00E9483
:10055000040284E991E10E942A07CE0163E00E942F
:10056000040284E991E10E942A07CE0163E00E941F
:10057000040286E990E00E942A07CE0162E00E9410
:10058000040216C06062CE010E94690284E991E112
:100590000E942A076F856062CE010E94690286E987
:1005A00090E00E942A076F856062CE010E94690276
:1005B0006F856062CE010E94690284E0888BCE0163
:1005C0000E946D02CE010E94770282E0898BCE01EB
:1005D00066E00E946902DF91CF9108956F927F9249
:1005E0008F92AF92CF92EF920F931F93DF93CF939F
:1005F000CDB7DEB73C01162F842FF301448325834A
:100600000683E782C086A18682869D8593879E8524
:1006100094879F8595879889968761E00E945908FD
:10062000F30185818F3F19F061E00E945908F301C1
:10063000868161E00E945908112319F0F3011786A1
:1006400003C080E1F3018787C30160E141E020E05E
:100650000E947F02CF91DF911F910F91EF90CF9079
:10066000AF908F907F906F9008958F92AF92CF92BE
:10067000EF920F931F93CF93DF93DC01362F542F0C
:10068000722F102FAE2C8C2C13961C921E92129748
:1006900089E091E011969C938E9300D000D0EDB745
:1006A000FEB73196CDB7DEB719821182128213825E
:1006B000CD0161E0432F2FEF052FE72EC12E0E94C1
:1006C000EE020F900F900F900F90DF91CF911F913E
:1006D0000F91EF90CF90AF908F900895FC01809193
:1006E000C0018C3090F482838F5F8093C001815071
:1006F00090E0FC01EE0FFF1FE80FF91FEF53FE4FD4
:1007000088EB9BE09283818308958FEF8283089525
:100710001F920F920FB60F9211242F933F934F9376
:100720005F936F937F938F939F93AF93BF93EF9359
:10073000FF938091E50187FF05C01092850010921C
:1007400084002BC02091E501332727FD309580914F
:10075000C00190E02817390704F58091E501992739
:1007600087FD9095FC01EE0FFF1FE80FF91FEF5377
:10077000FE4F808186FF11C08091E501992787FD9A
:100780009095FC01EE0FFF1FE80FF91FEF53FE4F8E
:1007900080818F7360E00E9498088091E5018F5FEF
:1007A0008093E5012091E501332727FD3095809165
:1007B000C00190E0281739070CF04EC08091E50188
:1007C0008C300CF049C020918400309185008091DC
:1007D000E501992787FD9095FC01EE0FFF1FE80FBB
:1007E000F91FEF53FE4F81819281280F391F3093FB
:1007F0008900209388008091E501992787FD9095D5
:10080000FC01EE0FFF1FE80FF91FEF53FE4F808131
:1008100086FF2BC08091E501992787FD9095FC010B
:10082000EE0FFF1FE80FF91FEF53FE4F80818F730C
:1008300061E00E94980819C080E49CE905C080919D
:10084000840090918500049690938900809388009D
:100850008FEF8093E50109C080918400909185001D
:10086000049680549C4940F3EACFFF91EF91BF91E9
:10087000AF919F918F917F916F915F914F913F9138
:100880002F910F900FBE0F901F901895EF92FF922F
:100890000F931F93FC01162FF42EE22E008311827A
:1008A00080E090E0A0E0B0E082839383A483B583EE
:1008B00086839783A087B1878DEC9CECACECBDE37D
:1008C00082879387A487B58766877787408B518B0C
:1008D000228B338B862F61E00E9459088F2D61E0B7
:1008E0000E9459088E2D61E00E945908812F60E016
:1008F0000E9498088F2D60E00E9498088E2D60E07D
:100900000E9498081F910F91FF90EF900895AF9269
:10091000BF92CF92EF920F93CF93DF93EC015B01E5
:100920008130910509F011C18FEF6F3F780709F011
:100930000CC180E090E0A8ECB2EC80937E02909332
:100940007F02A0938002B093810286EE91E063E083
:1009500070E044E050E025E030E001E00E94460411
:100960008AEF91E06BE070E04AE050E029E030E08F
:100970000E9446048EE092E00E946E0383E192E0C2
:100980000E946E0388E192E00E946E038DE192E086
:100990006CE04BE025E004E053E0E52E32E0C32EAE
:1009A0000E94350382E392E062E070E00E94FE0064
:1009B0001092370210923602D0933902C093380257
:1009C00025E020933A02B0925A02A09259028DE299
:1009D00092EBA6E6B1E480933B0290933C02A09395
:1009E0003D02B0933E0284E299EBACEDBFE380930D
:1009F0003F0290934002A0934102B093420280E0F4
:100A000090E0A0EAB1E48093430290934402A09363
:100A10004502B093460284EB98ECA1E9B1E48093DF
:100A2000470290934802A0934902B0934A0283E49C
:100A30009CE1ADEAB0E480934B0290934C02A0930A
:100A40004D02B0934E0280E090E0ACE8B2E48093B7
:100A50004F0290935002A0935102B09352028EEF36
:100A600091E0909354028093530289EB90E090932D
:100A700056028093550285E690E090935802809349
:100A80005702D0935C02C0935B0220935D02B09248
:100A90007D02A0927C0286EE9FE3A8ECB0E48093F6
:100AA0005E0290935F02A0936002B09361028FE2B6
:100AB0009DEDACEEBFE38093620290936302A0933E
:100AC0006402B093650280E090E0A0E2B1E480931C
:100AD000660290936702A0936802B09369028AEA63
:100AE00092E8ACE0B1E480936A0290936B02A09329
:100AF0006C02B0936D028AE191E5A2ECB0E48093C0
:100B00006E0290936F02A0937002B093710280E026
:100B100090E0ACE0B2E48093720290937302A093F1
:100B20007402B093750283E092E090937702809311
:100B3000760287EA90E090937902809378028AE5C2
:100B400090E090937B0280937A02DF91CF910F9196
:100B5000EF90CF90BF90AF90089580E090E06FEF5E
:100B60007FEF0E948704089581E090E06FEF7FEFB0
:100B70000E94870408958FE892E040E052EC61E023
:100B800070E00E94B70980E00E94D7070E94530BD3
:100B900086E090E090930F0280930E0287E090E051
:100BA000909314028093130288E090E090931902CE
:100BB000809318020895089580E090E0A8ECB2ECCC
:100BC0008093820290938302A0938402B093850263
:100BD00008950F931F93182F062F61E00E94590864
:100BE000812F602F0E9498081F910F910895DF9226
:100BF000EF92FF920F931F93D82E142F052FF62EEE
:100C0000E72E642F752F8F2D9E2D20E030E040E0E1
:100C100050E00E945C0B88235CF40F2EF0E0EF2E76
:100C2000F0E0FF2EF0E00F2FF0E01F2FF02D1DC0A1
:100C3000612F702F8F2D9E2D20E030E048EC52E484
:100C40000E94060C18163CF0812F902FAF2DBE2D60
:100C50007C018D010AC00F2EF0E0EF2EF0E0FF2E98
:100C6000F8EC0F2FF2E41F2FF02D8D2D61E00E9484
:100C70005908C801B70123E333E343E250E40E947B
:100C80000A0C0E94600B9B01AC018D2DB9010E94E2
:100C9000F9071F910F91FF90EF90DF9008950E9448
:100CA000BB0584E060E00E94E90582E061E00E940B
:100CB000E90585E060E00E94E90587E061E00E94C7
:100CC000E90583E040E050E068EC72E40E94F7053B
:100CD00086E040E050E068EC72E40E94F70568EEC0
:100CE00073E080E090E00E946F0784E060E00E9483
:100CF000E90582E060E00E94E90585E060E00E948D
:100D0000E90587E060E00E94E90583E040E050E00B
:100D100060E070E00E94F70586E040E050E060E0AF
:100D200070E00E94F70568EE73E080E090E00E94BA
:100D30006F0784E060E00E94E90582E060E00E94C5
:100D4000E90585E061E00E94E90587E060E00E9436
:100D5000E90583E040E050E068E472E40E94F705B2
:100D600086E040E050E068E472E40E94F70568EE37
:100D700073E080E090E00E946F0784E060E00E94F2
:100D8000E90582E060E00E94E90585E060E00E94FC
:100D9000E90587E060E00E94E90583E040E050E07B
:100DA00060E070E00E94F70586E040E050E060E01F
:100DB00070E00E94F70568EE73E080E090E00E942A
:100DC0006F076FCF1F920F920FB60F9211242F93C0
:100DD0003F938F939F93AF93BF9380918A0290919B
:100DE0008B02A0918C02B0918D0230918E020196FF
:100DF000A11DB11D232F2D5F2D3720F02D570196FA
:100E0000A11DB11D20938E0280938A0290938B02C4
:100E1000A0938C02B0938D028091860290918702FC
:100E2000A0918802B09189020196A11DB11D809305
:100E3000860290938702A0938802B0938902BF91A3
:100E4000AF919F918F913F912F910F900FBE0F9077
:100E50001F901895019739F0880F991F880F991FD7
:100E600002970197F1F70895789484B5826084BD64
:100E700084B5816084BD85B5826085BD85B581609E
:100E800085BDEEE6F0E0808181608083E1E8F0E0FE
:100E90001082808182608083808181608083E0E82D
:100EA000F0E0808181608083E1EBF0E0808184600C
:100EB0008083E0EBF0E0808181608083EAE7F0E00E
:100EC0008081846080838081826080838081816072
:100ED00080838081806880831092C1000895EF92A2
:100EE000FF920F931F93CF93DF937B018C013FB74A
:100EF000F8948091860290918702A0918802B09127
:100F0000890226B5A89B05C02F3F19F00196A11DA7
:100F1000B11D3FBFBA2FA92F982F8827820F911D8F
:100F2000A11DB11D52E0880F991FAA1FBB1F5A9522
:100F3000D1F7EC0130C00E945B0B3FB7F894809171
:100F4000860290918702A0918802B091890226B50D
:100F5000A89B05C02F3F19F00196A11DB11D3FBFF1
:100F6000BA2FA92F982F8827820F911DA11DB11D7F
:100F700032E0880F991FAA1FBB1F3A95D1F78C1B2F
:100F80009D0B885E9340B8F20894E108F1080109CE
:100F90001109C851DC4FE114F1040105110559F69E
:100FA000DF91CF911F910F91FF90EF900895982FAF
:100FB0008E3008F09E509770809104018295880FC2
:100FC000880F807C892B80937C0080917A008064DC
:100FD00080937A0080917A0086FDFCCF2091780082
:100FE00040917900942F80E030E0282B392BC90103
:100FF00008951F93CF93DF93182FEB0161E00E94B8
:101000005908209709F44AC0CF3FD10509F449C0D7
:10101000E12FF0E0E255FF4F84918330C1F084303E
:1010200028F4813051F08230B1F50CC0863019F1CE
:10103000873049F1843079F514C084B5806884BD67
:10104000C7BD33C084B5806284BDC8BD2EC0809149
:101050008000806880938000D0938900C0938800CE
:1010600024C080918000806280938000D0938B00A8
:10107000C0938A001AC08091B00080688093B0004D
:10108000C093B30012C08091B00080628093B00022
:10109000C093B4000AC0C038D1051CF4812F60E0B1
:1010A00002C0812F61E00E949808DF91CF911F91CB
:1010B0000895CF93DF93482F50E0CA0186569F4F83
:1010C000FC0134914A575F4FFA018491882369F1FA
:1010D00090E0880F991FFC01E859FF4FA591B4914A
:1010E000FC01EE58FF4FC591D491662351F42FB700
:1010F000F8948C91932F909589238C9388818923E0
:101100000BC0623061F42FB7F8948C91932F9095B7
:1011100089238C938881832B88832FBF06C09FB738
:10112000F8948C91832B8C939FBFDF91CF9108957E
:10113000482F50E0CA0182559F4FFC012491CA01FB
:1011400086569F4FFC0194914A575F4FFA013491A4
:10115000332309F440C0222351F1233071F02430AD
:1011600028F42130A1F0223011F514C02630B1F05E
:101170002730C1F02430D9F404C0809180008F77EB
:1011800003C0809180008F7D8093800010C084B563
:101190008F7702C084B58F7D84BD09C08091B00077
:1011A0008F7703C08091B0008F7D8093B000E32FD4
:1011B000F0E0EE0FFF1FEE58FF4FA591B4912FB74F
:1011C000F894662321F48C919095892302C08C9128
:1011D000892B8C932FBF0895682F70E0CB01825527
:1011E0009F4FFC012491CB0186569F4FFC014491F7
:1011F0006A577F4FFB019491992319F420E030E066
:101200003CC0222351F1233071F0243028F42130E6
:10121000A1F0223011F514C02630B1F02730C1F012
:101220002430D9F404C0809180008F7703C080916E
:1012300080008F7D8093800010C084B58F7702C0BE
:1012400084B58F7D84BD09C08091B0008F7703C0C5
:101250008091B0008F7D8093B000892F90E0880F3F
:10126000991F84589F4FFC01A591B4918C9120E067
:1012700030E0842311F021E030E0C90108950895A1
:101280001F920F920FB60F9211242F933F934F93FB
:101290008F939F93EF93FF938091C00082FD19C0BD
:1012A0004091C6008091AD02282F30E02F5F3F4F64
:1012B0002F7330708091AE0290E02817390759F0F3
:1012C000E091AD02F0E0E157FD4F42A32093AD0263
:1012D00002C08091C600FF91EF919F918F914F9135
:1012E0003F912F910F900FBE0F901F9018958091F6
:1012F000AD022091AE0290E0805C9F4F821B91096D
:101300008F739070892B11F00E943F0908951F92EE
:101310000F920FB60F9211242F938F939F93EF93F9
:10132000FF939091AF028091B002981731F48091B1
:10133000C1008F7D8093C10010C0E091B002F0E049
:10134000EF50FD4F20818091B00290E001968F73A5
:1013500090708093B0022093C600FF91EF919F910F
:101360008F912F910F900FBE0F901F901895AF92F5
:10137000BF92DF92EF92FF920F931F93CF93DF9371
:10138000EC017A018B01DD24403081EE580780E0CA
:10139000680780E0780711F0DD24D39491E0A92E4E
:1013A000B12CE889F989DD2069F0C5010C8C02C0F7
:1013B000880F991F0A94E2F7808360E079E08DE35B
:1013C00090E005C0108260E874E88EE190E0A8012A
:1013D00097010E948C0C215030404040504056955F
:1013E00047953795279580E12030380720F0DD209C
:1013F00011F0DD24D6CFEC85FD853083EE85FF85A9
:1014000020831D8EEA89FB89408121E030E0C901FB
:10141000088C02C0880F991F0A94E2F7482B40837A
:10142000EA89FB894081C901098C02C0880F991F94
:101430000A94E2F7482B4083EA89FB894081C9017D
:101440000A8C02C0880F991F0A94E2F7482B408348
:10145000EA89FB8980810B8C02C0220F331F0A941A
:10146000E2F7209528232083DF91CF911F910F91E0
:10147000FF90EF90DF90BF90AF900895FC01268D14
:10148000878D30E0205C3F4F281B31092F7330706F
:10149000C9010895FC01968D878D981719F42FEFD7
:1014A0003FEF06C0878DE80FF11D82A1282F30E0A5
:1014B000C9010895DC015E969C915E975F968C91C0
:1014C0005F97981719F42FEF3FEF10C05F968C913C
:1014D0005F97FD01E80FF11D92A15F968C915F97D8
:1014E0008F5F8F735F968C93292F30E0C901089529
:1014F000DC015D968C915D97882339F05096ED91D3
:10150000FC915197808186FFF9CF5D961C920895DA
:10151000DC0190968C919097282F30E02F5F3F4F01
:101520002F73307091968C91919790E0281739071E
:10153000C9F390968C919097FD01E80FF11DEE593B
:10154000FF4F608390962C9390975296ED91FC916B
:101550005397208181E090E05B960C905B9702C0EE
:10156000880F991F0A94E2F7282B208381E05D966B
:101570008C935D975096ED91FC915197808180649A
:10158000808381E090E0089510929202109291027F
:1015900088EE93E0A0E0B0E08093930290939402F1
:1015A000A0939502B093960281E191E0909390020E
:1015B00080938F021092B0028091B0028093AF02AC
:1015C0001092AE028091AE028093AD0285EC90E065
:1015D00090939C0280939B0284EC90E090939E02F7
:1015E00080939D0280EC90E09093A00280939F02F4
:1015F00081EC90E09093A2028093A10282EC90E0B3
:101600009093A4028093A30286EC90E09093A602AC
:101610008093A50284E08093A70283E08093A802D0
:1016200087E08093A90285E08093AA0281E08093FD
:10163000AB020895CF93DF930E9434070E944F06B8
:10164000C7E7D9E00E94DB052097E1F30E94770904
:10165000F9CFCF92DF92EF92FF920F931F93CF9328
:10166000DF937C016B018A01C0E0D0E00FC0D6019E
:101670006D916D01D701ED91FC910190F081E02D0C
:10168000C7010995C80FD91F015010400115110558
:1016900071F7CE01DF91CF911F910F91FF90EF90E5
:1016A000DF90CF900895009729F0BC0180E090E092
:1016B0000E94E8000895089534D008F481E0089568
:1016C00004D06894B1119CC008957FD088F09F57D2
:1016D00090F0B92F9927B751A0F0D1F0660F771F7E
:1016E000881F991F1AF0BA95C9F712C0B13081F05E
:1016F00086D0B1E0089583C0672F782F8827B85F20
:1017000039F0B93FCCF3869577956795B395D9F7BE
:101710003EF490958095709561957F4F8F4F9F4FC8
:101720000895990F0008550FAA0BE0E8FEEF161672
:101730001706E807F907C0F012161306E407F507C5
:1017400098F0621B730B840B950B39F40A2661F039
:10175000232B242B252B21F408950A2609F4A140DC
:10176000A6958FEF811D811D089597F99F6780E8E9
:1017700070E060E008959FEF80EC089500240A94E3
:101780001616170618060906089500240A9412165C
:101790001306140605060895092E0394000C11F48F
:1017A000882352F0BB0F40F4BF2B11F460FF04C03C
:1017B0006F5F7F4F8F4F9F4F089557FD9058440F95
:1017C000551F59F05F3F71F04795880F97FB991FA0
:1017D00061F09F3F79F0879508951216130614065D
:1017E000551FF2CF4695F1DF08C0161617061806EA
:1017F000991FF1CF86957105610508940895E894C5
:10180000BB2766277727CB0197F908958ADF08F46D
:101810008FEF08950BD0C0CFB1DF28F0B6DF18F0FE
:10182000952309F0A2CFA7CF1124EACFC6DFA0F3FA
:10183000959FD1F3950F50E0551F629FF001729F65
:10184000BB27F00DB11D639FAA27F00DB11DAA1F84
:10185000649F6627B00DA11D661F829F2227B00DD1
:10186000A11D621F739FB00DA11D621F839FA00D5C
:10187000611D221F749F3327A00D611D231F849FAC
:10188000600D211D822F762F6A2F11249F57504003
:101890008AF0E1F088234AF0EE0FFF1FBB1F661F9E
:1018A000771F881F91505040A9F79E3F510570F057
:1018B0005CCFA6CF5F3FECF3983EDCF3869577953F
:1018C0006795B795F795E7959F5FC1F7FE2B880F52
:1018D000911D9695879597F90895629FD001739F02
:1018E000F001829FE00DF11D649FE00DF11D929FBC
:1018F000F00D839FF00D749FF00D659FF00D9927FB
:10190000729FB00DE11DF91F639FB00DE11DF91F1E
:10191000BD01CF0111240895A1E21A2EAA1BBB1B01
:10192000FD010DC0AA1FBB1FEE1FFF1FA217B307AB
:10193000E407F50720F0A21BB30BE40BF50B661FC1
:10194000771F881F991F1A9469F760957095809585
:1019500090959B01AC01BD01CF01089597FB092E25
:1019600005260ED057FD04D0D7DF0AD0001C38F46E
:1019700050954095309521953F4F4F4F5F4F0895BB
:10198000F6F790958095709561957F4F8F4F9F4F9B
:101990000895EE0FFF1F0590F491E02D09942F920A
:1019A0003F924F925F926F927F928F929F92AF92EF
:1019B000BF92CF92DF92EF92FF920F931F93CF933C
:1019C000DF93CDB7DEB7CA1BDB0B0FB6F894DEBFD3
:1019D0000FBECDBF09942A88398848885F846E84F9
:1019E0007D848C849B84AA84B984C884DF80EE8043
:1019F000FD800C811B81AA81B981CE0FD11D0FB64C
:101A0000F894DEBF0FBECDBFED01089510E0CAEC23
:101A1000D0E004C0FE010E94CB0C2296CC3CD10742
:061A2000C9F7F894FFCFA6
:101A26000100000001000000006302290B00000015
:0E1A360000880A290B3E0A5A0A4A0A780A005A
:00000001FF
