:100000000C9462000C948A000C948A000C948A0070
:100010000C948A000C948A000C948A000C948A0038
:100020000C948A000C948A000C948A000C948A0028
:100030000C948A000C948A000C948A000C948A0018
:100040000C94E4010C948A000C9427030C946E0326
:100050000C948A000C948A000C948A000C948A00F8
:100060000C948A000C948A000000000024002700F1
:100070002A0000000000250028002B0000000000DE
:1000800023002600290004040404040404040202DA
:100090000202020203030303030301020408102007
:1000A0004080010204081020010204081020000012
:1000B0000007000201000003040600000000000029
:1000C0000000AB0411241FBECFEFD8E0DEBFCDBFD0
:1000D00011E0A0E0B1E0EAEBFBE002C005900D9278
:1000E000AE32B107D9F711E0AEE2B1E001C01D9226
:1000F000A93DB107E1F710E0C4ECD0E004C02297BD
:10010000FE010E94A005C23CD107C9F70E9401056B
:100110000C94DB050C940000A0E0B0E0E2E9F0E014
:100120000C94AC05EC01A880B980CA80DB80A114D6
:10013000B104C104D10441F484E2A82E89EDB82EA3
:100140008BE5C82E87E0D82EC601B5012DE133EF2F
:1001500041E050E00E94830527EA31E440E050E0AE
:100160000E9442057B018C01C601B5012DE133EFF0
:1001700041E050E00E948305CA01B9012CEE34EF42
:100180004FEF5FEF0E9442056E0D7F1D801F911F94
:1001900097FF04C061507040804090486883798325
:1001A0008A839B839B01AC015F77B901CA01CDB7FC
:1001B000DEB7EAE00C94C8050E948C00089580E048
:1001C00091E00E948C0008956093000170930101FA
:1001D0008093020190930301089587E391E040E04A
:1001E00052EC61E070E00E949E0380E00E94710288
:1001F0000E943A05089508950F931F93182F062F14
:1002000061E00E949302812F602F0E94D2021F9111
:100210000F9108956F927F928F929F92AF92BF92AB
:10022000CF92DF92EF92FF920F931F93CF93DF93C2
:10023000EC01882777FD8095982F28EE33E040E089
:1002400050E00E9442053B014C01CE01880F991FEE
:100250005C01CC24B7FCC094DC2CEE24FF24870185
:1002600012C088E061E00E94FC00CE010E942C02D6
:1002700088E060E00E94FC00CE010E942C02EA0CA3
:10028000FB1C0C1D1D1DE614F704080519054CF395
:10029000DF91CF911F910F91FF90EF90DF90CF9062
:1002A000BF90AF909F908F907F906F9008959F9296
:1002B000AF92BF92CF92DF92EF92FF920F931F9374
:1002C000DF93CF93CDB7DEB768970FB6F894DEBF54
:1002D0000FBECDBF982EDE011196E5E1F1E088E07A
:1002E00001900D928150E1F7DE011996E5E0F1E011
:1002F00080E101900D928150E1F7469F6001479F98
:10030000D00C569FD00C11247E010894E11CF11CE6
:100310008E01075F1F4F5801F7018081891531F465
:10032000F80180819181B6010E940A010894E11CC4
:10033000F11C0E5F1F4FEA14FB0471F768960FB6AD
:10034000F894DEBF0FBECDBFCF91DF911F910F910B
:10035000FF90EF90DF90CF90BF90AF909F90089567
:100360000E94ED0083E661E070E04CE251E00E9403
:10037000570183E661E070E04CE251E00E945701D2
:1003800087E661E070E04CE251E00E94570187E6A9
:1003900061E070E04CE251E00E94570181E661E0CB
:1003A00070E04CE251E00E94570181E661E070E0AC
:1003B0004CE251E00E94570187E661E070E04CE2B8
:1003C00051E00E94570108951F920F920FB60F92AD
:1003D00011242F933F938F939F93AF93BF9380915B
:1003E000320190913301A0913401B09135013091E7
:1003F00036010196A11DB11D232F2D5F2D3720F051
:100400002D570196A11DB11D209336018093320115
:1004100090933301A0933401B093350180912E0164
:1004200090912F01A0913001B09131010196A11D51
:10043000B11D80932E0190932F01A0933001B093B2
:100440003101BF91AF919F918F913F912F910F906B
:100450000FBE0F901F901895019739F0880F991FC4
:10046000880F991F02970197F1F70895789484B542
:10047000826084BD84B5816084BD85B5826085BDA0
:1004800085B5816085BDEEE6F0E080818160808386
:10049000E1E8F0E010828081826080838081816069
:1004A0008083E0E8F0E0808181608083E1EBF0E030
:1004B000808184608083E0EBF0E0808181608083D4
:1004C000EAE7F0E0808184608083808182608083BD
:1004D0008081816080838081806880831092C100E8
:1004E0000895982F8E3008F09E50977080910401E7
:1004F0008295880F880F807C892B80937C00809167
:100500007A00806480937A0080917A0086FDFCCF27
:100510002091780040917900942F80E030E0282BE2
:10052000392BC9010895CF93DF93482F50E0CA01BA
:1005300086569F4FFC0134914A575F4FFA018491D0
:10054000882369F190E0880F991FFC01E859FF4F5B
:10055000A591B491FC01EE58FF4FC591D49166234B
:1005600051F42FB7F8948C91932F909589238C9305
:10057000888189230BC0623061F42FB7F8948C9185
:10058000932F909589238C938881832B88832FBF09
:1005900006C09FB7F8948C91832B8C939FBFDF91FB
:1005A000CF910895482F50E0CA0182559F4FFC011A
:1005B0002491CA0186569F4FFC0194914A575F4F80
:1005C000FA013491332309F440C0222351F123303E
:1005D00071F0243028F42130A1F0223011F514C03C
:1005E0002630B1F02730C1F02430D9F404C0809116
:1005F00080008F7703C0809180008F7D8093800082
:1006000010C084B58F7702C084B58F7D84BD09C0CA
:100610008091B0008F7703C08091B0008F7D809370
:10062000B000E32FF0E0EE0FFF1FEE58FF4FA59153
:10063000B4912FB7F894662321F48C919095892377
:1006400002C08C91892B8C932FBF089508951F921F
:100650000F920FB60F9211242F933F934F938F93C6
:100660009F93EF93FF938091C00082FD19C040914A
:10067000C60080915501282F30E02F5F3F4F2F7328
:1006800030708091560190E02817390759F0E091B9
:100690005501F0E0E95CFE4F42A32093550102C0F2
:1006A0008091C600FF91EF919F918F914F913F9163
:1006B0002F910F900FBE0F901F90189580915501AC
:1006C0002091560190E0805C9F4F821B91098F73AF
:1006D0009070892B11F00E94260308951F920F92AB
:1006E0000FB60F9211242F938F939F93EF93FF9345
:1006F0009091570180915801981731F48091C10071
:100700008F7D8093C10010C0E0915801F0E0E75662
:10071000FE4F20818091580190E001968F73907078
:10072000809358012093C600FF91EF919F918F9184
:100730002F910F900FBE0F901F901895AF92BF9200
:10074000DF92EF92FF920F931F93CF93DF93EC0111
:100750007A018B01DD24403081EE580780E0680784
:1007600080E0780711F0DD24D39491E0A92EB12C1C
:10077000E889F989DD2069F0C5010C8C02C0880F79
:10078000991F0A94E2F7808360E079E08DE390E0BE
:1007900005C0108260E874E88EE190E0A80197013E
:1007A0000E94610521503040404050405695479589
:1007B0003795279580E12030380720F0DD2011F0B3
:1007C000DD24D6CFEC85FD853083EE85FF85208343
:1007D0001D8EEA89FB89408121E030E0C901088C47
:1007E00002C0880F991F0A94E2F7482B4083EA89D8
:1007F000FB894081C901098C02C0880F991F0A94A6
:10080000E2F7482B4083EA89FB894081C9010A8CC1
:1008100002C0880F991F0A94E2F7482B4083EA89A7
:10082000FB8980810B8C02C0220F331F0A94E2F7F0
:10083000209528232083DF91CF911F910F91FF9066
:10084000EF90DF90BF90AF900895FC01268D878DCB
:1008500030E0205C3F4F281B31092F733070C901F5
:100860000895FC01968D878D981719F42FEF3FEFAF
:1008700006C0878DE80FF11D82A1282F30E0C90145
:100880000895DC015E969C915E975F968C915F97D0
:10089000981719F42FEF3FEF10C05F968C915F9778
:1008A000FD01E80FF11D92A15F968C915F978F5F1C
:1008B0008F735F968C93292F30E0C9010895DC0176
:1008C0005D968C915D97882339F05096ED91FC915F
:1008D0005197808186FFF9CF5D961C920895DC01C7
:1008E00090968C919097282F30E02F5F3F4F2F7379
:1008F000307091968C91919790E028173907C9F341
:1009000090968C919097FD01E80FF11DEE59FF4FE5
:10091000608390962C9390975296ED91FC9153970B
:10092000208181E090E05B960C905B9702C0880F7D
:10093000991F0A94E2F7282B208381E05D968C931F
:100940005D975096ED91FC915197808180648083F2
:1009500081E090E0089510923A011092390188EEFA
:1009600093E0A0E0B0E080933B0190933C01A09322
:100970003D01B0933E0181E291E090933801809374
:1009800037011092580180915801809357011092BD
:100990005601809156018093550185EC90E090932B
:1009A00044018093430184EC90E09093460180934E
:1009B000450180EC90E0909348018093470181ECE1
:1009C00090E090934A018093490182EC90E09093EB
:1009D0004C0180934B0186EC90E090934E01809304
:1009E0004D0184E080934F0183E08093500187E0C4
:1009F0008093510185E08093520181E080935301FF
:100A00000895CF93DF930E9436020E94B001CEE595
:100A1000D3E00E94FB002097E1F30E945E03F9CF30
:100A2000CF92DF92EF92FF920F931F93CF93DF93BA
:100A30007C016B018A01C0E0D0E00FC0D6016D914E
:100A40006D01D701ED91FC910190F081E02DC7017E
:100A50000995C80FD91F015010400115110571F7F4
:100A6000CE01DF91CF911F910F91FF90EF90DF901A
:100A7000CF900895009729F0BC0180E090E00E949B
:100A8000E4000895629FD001739FF001829FE00D02
:100A9000F11D649FE00DF11D929FF00D839FF00DFD
:100AA000749FF00D659FF00D9927729FB00DE11DA9
:100AB000F91F639FB00DE11DF91FBD01CF01112486
:100AC0000895A1E21A2EAA1BBB1BFD010DC0AA1F8F
:100AD000BB1FEE1FFF1FA217B307E407F50720F0A7
:100AE000A21BB30BE40BF50B661F771F881F991F22
:100AF0001A9469F760957095809590959B01AC016B
:100B0000BD01CF01089597FB092E05260ED057FD94
:100B100004D0D7DF0AD0001C38F4509540953095AA
:100B200021953F4F4F4F5F4F0895F6F79095809571
:100B3000709561957F4F8F4F9F4F0895EE0FFF1F68
:100B40000590F491E02D09942F923F924F925F927D
:100B50006F927F928F929F92AF92BF92CF92DF92CD
:100B6000EF92FF920F931F93CF93DF93CDB7DEB732
:100B7000CA1BDB0B0FB6F894DEBF0FBECDBF0994C6
:100B80002A88398848885F846E847D848C849B841D
:100B9000AA84B984C884DF80EE80FD800C811B812B
:100BA000AA81B981CE0FD11D0FB6F894DEBF0FBE5A
:0A0BB000CDBFED010895F894FFCFCA
:100BBA0001000000017B07A406EF059805FB0470FD
:100BCA0004F603BC03636465666761624300000060
:0E0BDA00006F0410052504410431045F04007F
:00000001FF
